:020000040000FA
:100000002014002085190000911000008D100000C0
:100010008D1000008D1000008D1000008D1000006C
:100020000000000000000000000000008D10000033
:100030008D100000000000008D1000008D100000E9
:1000400003270000D52700008B2700009926000019
:1000500003270000D52700008B2700009926000009
:1000600003270000D52700008B27000099260000F9
:10007000911E000003270000D52700008B270000F9
:1000800099260000000000004000350040003500C7
:10009000400035004000350030303A30300000007C
:020000040000FA
:1000A00040EA01039B0703D009E008C9121F08C0FA
:1000B000042AFAD203E011F8013B00F8013B521E7A
:1000C000F9D27047D2B201E000F8012B491EFBD2F1
:1000D00070470022F6E710B513460A460446194653
:1000E000FFF7F0FF204610BD0FB400B58DB010A98A
:1000F00009900B9000914FF0FF300A9000200C9077
:1001000005480690054807906A4609A80F9900F02F
:100110003BFB0DB05DF814FBA5070000C307000012
:100120002DE9FF5F1D464FF0FF3BD5E901469146A3
:100130005F464FF00008A9697F1C01988847296A2B
:10014000824688470028F6D1BAF1FF3F0CD024F44C
:10015000C064002E19DD600614D5BAF12B0F09D04A
:10016000BAF12D0F0ED103E0584604B0BDE8F09F60
:1001700044F48064A9697F1C01988847761E8246F2
:10018000002E02DDBAF1300F03D0B9F1000F26D0F6
:1001900032E0A969761E44F400747F1C01988847F8
:1001A0008246002E05DDBAF1780F06D0BAF1580F5D
:1001B00003D0B9F1000F10D01EE0B9F1000F02D04A
:1001C000B9F1100F18D1A969761E24F400747F1CB0
:1001D000019888478246102002E0082000E00A20AB
:1001E000814609E008FB0908A969761E44F40074F9
:1001F0007F1C019888478246002E05DD49465046FF
:1002000000F0AEFA0028EDDAE96901988847A00508
:1002100002D46FF00100A8E7E00725D1600613D5EE
:10022000600502D5C8F1000000E0404629680A1DBB
:100230002A600968220501D5087015E0220701D55A
:10024000088011E008600FE02868011D296000683F
:10025000210502D580F8008006E0210702D5A0F82C
:10026000008001E0C0F8008038467EE72DE9FF5F9E
:10027000D2E901A74FF00008916999461446DDF8CC
:1002800038B0464601988847054659EA0B0005D024
:1002900009E0A169761C019888470546216A28462D
:1002A00088470028F5D1681C03D05FEACA7005D0E2
:1002B00015E04FF0FF3004B0BDE8F09F2068011D4D
:1002C0002160D0F800800AE05FEACA7001D108F826
:1002D000015BA169761C7F1E019888470546002FA7
:1002E0001ADD681C18D0B9F1000F0DD0E81705EB26
:1002F000D060421120F01F0059F822102A1A012064
:1003000090400142E0D107E0BBF1000FDCD1216A4F
:10031000284688470028D7D0E16901988847BBF173
:10032000000F07D1002E05DD5FEACA7002D100215F
:1003300088F80010A068B84203DDBBF1000F03D0BD
:1003400017B16FF00100B6E73046B4E72DE9FF4F73
:10035000087883B09946FF2805D0491C2D2804D081
:100360000024002008E000200BE00124F9E700EB66
:10037000800003EB4000491C0B78FF2BF7D104B140
:10038000404200230293147819461D462D2C01D0BB
:100390002B2C04D1521C2D2C13D000240294AA46DD
:1003A0001478FF2C0FD00A25A3FB057801FB0581EB
:1003B0004FF0000C03FB0C11521CE3194AEB010136
:1003C000EEE70124EAE7814453EA010002D019F57F
:1003D000C87F06DA03980021C0E9001107B0BDE824
:1003E000F08F0025AE4E2F46DFF8B882184600F099
:1003F00081FBCDE90001B9F1000002DAC9F1000486
:1004000000E004460023A74A1AEB030B42EB045A10
:1004100012E0E00707D02A4633463846414600F04E
:1004200088FA074688462A4633461046194600F0A1
:1004300080FA05460E466410002CEAD1DDE9000181
:10044000B9F1000F5A46534606DA00F0E4FA3A468C
:10045000434600F0E0FA05E000F06BFA3A46434606
:1004600000F067FA029A0AB181F00041039AC2E9EA
:100470000001B3E72DE9FF4F1F468DB0D7E90146D4
:100480004FF0FF382E2045464FF000090B90B96918
:100490006D1C0E988847396A824688470028F6D135
:1004A000BAF1FF3F0AD024F4D064002E11DDBAF176
:1004B0002B0F08D0BAF12D0F0BD102E0404611B03E
:1004C0008DE744F48064B9696D1C0E9888478246B4
:1004D000761E6946600501D52D2000E02B208DF8A1
:1004E000000001F1010B0DF1200809E0B9696D1C54
:1004F0000E98884782460F9844F40074761E056073
:10050000002E02DDBAF1300FF0D00B998A453ED1B2
:1005100044F0800406E00F99681CA9F1010944F435
:1005200000740860B9696D1C761E0E988847824673
:100530003028F0D02BE00B998A4505D1200603D452
:1005400044F08004761E18E0504602F0EFFA08B33B
:100550000DF11302761EAAF1300044F400749345A5
:1005600006D20BF8010B200607D5A9F1010003E024
:10057000200602D409F101008146A00502D50F9999
:10058000681C0860B9696D1C0E9888478246002E69
:10059000D1DC53E0002E51DDBAF1650F02D0BAF183
:1005A000450F4BD1A00549D5B9696D1C24F44074A1
:1005B000761E0E9888478246002E0CDD2B2804D02C
:1005C000BAF12D0F07D144F48074B9696D1C0E98EF
:1005D00088478246761EE00501D52D2100E02B21BB
:1005E00008F8011BCDF82C8021E00DF12901761EC1
:1005F00044F4007488450CD2AAF1300010F0FF00DA
:1006000088F8000002D10B99884509D908F1010842
:1006100006E0E00501D5244801E042F20F70814672
:10062000B9696D1C0E98884782460F980560002EA8
:1006300004DD504602F07AFA0028D6D1F9690E9806
:100640008847FF208BF8000088F800000020069003
:1006500007904B466A4608A906A8FFF777FEA00553
:1006600002D46FF001002AE714F0240F0AD0E0074B
:1006700014D1DDE906123868031D3B600068C0E94B
:1006800000120BE0DDE9060100F070FA0146E00718
:1006900004D13868021D3A600068016028460EE700
:1006A000000014400000F03FF1D8FFFF00F00042CE
:1006B00030F000400AD0C10D01F56071C0F31600A2
:1006C00042EA0151C2084007114370470020014629
:1006D000704730B50B46014600202022012409E076
:1006E00021FA02F59D4205D303FA02F5491B04FAEB
:1006F00002F52844151EA2F10102F1DC30BD2DE9FE
:10070000F05F0546002092469B4688460646814695
:1007100040241BE0284641464746224600F051FA55
:1007200053465A46C01A914110D3114618462246E4
:1007300000F038FA2D1A67EB01084F4622460120D7
:10074000002100F02FFA17EB00094E41201EA4F102
:100750000104DFDC484631462A464346BDE8F09FA7
:100760003A2800D2303820F02002412A01D3A2F1E9
:100770003700884201D34FF0FF30704702681144C0
:100780001378016018467047D160044951610449EB
:10079000116200211161114600F03ABA7D07000094
:1007A000070C0000426842B1016811F8013B23B117
:1007B000521EC0E90012184670470121C160881E10
:1007C000704742685AB1C368016843B983688B4275
:1007D00005D0491E521CC0E90012002070474FF09E
:1007E000FF3070472DE9FE4F804681EA0300C00FBD
:1007F0000C46009021F0004123F00045B8EB0200C8
:10080000A94105D24046214690461C460B46024669
:1008100023F00040104347D0270DC7F30A00C3F36D
:100820000A510290401A019040286BDAC3F313007A
:1008300040F4801B0098924620B10023D2EB030ABB
:1008400063EB0B0B01985946C0F14002504600F093
:10085000A9F906460D4650465946019A00F0C1F9DD
:1008600010EB08006141002487EA115284EAE77323
:100870001A4340D0009A62B3019A012A4FEA075204
:1008800015DC001B61EB02014FF0004202EA075247
:10089000CDE90042001C41F5801132462B4600F0A4
:1008A00093FB03B0BDE8F08F40462146F9E7001BFB
:1008B00061EB0201001C41F5801300185B41201818
:1008C000A2F5001747EB030140EAD570B6196D4158
:1008D00011E06D084FEA360645EAC0754FEA075247
:1008E000001B61EB0201001C41F5801149084FEA31
:1008F00030000019514132462B4603B0BDE8F04F9D
:1009000000F053BB0098012240000023D0EB02020C
:1009100063EBE073009821464FEAE074B8EB000007
:1009200061EB0401E9E783F000435BE781F00041FC
:1009300058E72DE9FE4F81EA030404F0004421F05A
:10094000004100944FF0000B23F0004350EA0104F3
:100950005ED052EA03045BD0C3F30A54C1F30A55D4
:100960002C44A4F2F3340194A0FB0254C1F313010C
:1009700041F48011C3F3130343F4801301FB0244D9
:1009800000FB034E840A970A44EA815447EA8357DE
:10099000A4FB076802958D0A05FB07854FEA932C97
:1009A00004FB0C542705029D4FEA065847EA163708
:1009B000B5EB08056EEB070C870E920E47EA811720
:1009C00042EA8312A7FB0201B6EB0B0164EB0004C1
:1009D0002B0D43EA0C335E1844EB1C50DA465146AB
:1009E000E7FB0201C5F313044FEA0B3343EA145348
:1009F0004FEA0432019C43EA0603A4F10C0402947A
:100A0000009CCDE900B400F0DFFA03B0BDE8F08F40
:100A100000200146F9E72DE9F04D81EA030404F0D6
:100A2000004B21F0004514464FF0000A23F000412E
:100A300050EA050220D054EA01021DD0C5F30A573E
:100A40000246C5F31303C1F31300C1F30A5640F481
:100A5000801543F48013A7EB0608101BD64608F256
:100A6000FD3873EB050002D308F1010801E092188C
:100A70005B41B8F1000F03DA00200146BDE8F08DBC
:100A800000204FF48011064684460EE0171B73EBDE
:100A9000050705D3121B63EB050306434CEA010C63
:100AA00049084FEA300092185B4150EA0107EDD146
:100AB00052EA030012D082EA040083EA05010843E7
:100AC00005D0101BAB4106D20122002306E0002214
:100AD0004FF0004302E06FF0010253101AEB0600E2
:100AE0004CEB085110EB0A0041EB0B01BDE8F04D57
:100AF00000F05BBA0EB540F2334202920022CDE91B
:100B00000022134600F060FA03B000BDC1F30A52A0
:100B1000C1F3130140F2FF3341F480119A4202DA2B
:100B200000200146704740F233439A42A2F233421A
:100B300002DC524200F045B800F034B830B5041E73
:100B400071F1000404DB4FF00044404264EB01010A
:100B5000141E73F1000405DB1C464FF000435242A3
:100B600063EB0403994208BF904230BD01F000439B
:100B700030B421F0004150EA010206D00A0DA2F57E
:100B80006072C1F31301002A02DC30BC0020704700
:100B9000440F44EAC104C100E01830BC00EBC2506D
:100BA00000F0CCB9202A04DB203A00FA02F1002040
:100BB00070479140C2F1200320FA03F3194390409B
:100BC0007047202A04DB203A21FA02F00021704706
:100BD00021FA02F3D040C2F12002914008431946A5
:100BE0007047202A06DBCB17203A41FA02F043EA8D
:100BF000E07306E041FA02F3D040C2F120029140D6
:100C0000084319467047C0B24FF4F05100F02ABAB9
:100C10002DE9F34F8BB04FF0000801F10C000C46AA
:100C20004FF0010B46460DF1080A0190626901215F
:100C300001989047051E2DD0252D2CD0216A88477C
:100C4000C0B16269012101989047216A8847002854
:100C5000F7D1411E62690198904700E0761CA169B6
:100C60000B988847216A88470028F7D1E1690B98DB
:100C70008847DBE7A1690B9888470746A84201D15E
:100C8000761CD3E7E1690B9888477F1C02D1B8F145
:100C9000000F6FD046E1002762693D463946019852
:100CA00090472A2804D162690121019890470125C3
:100CB000DFF884926269012101989047A0F1300128
:100CC0000A290AD24F45E5DC07EB870100EB410713
:100CD000303FDFD445F01005ECE7E90601D46FF0B2
:100CE00000476C280AD04C2814D0682815D06A28F0
:100CF0000DD074281CD07A281AD01DE06269012119
:100D0000019890476C2802D045F0040514E045F0A6
:100D100002050DE045F020050AE062690121019815
:100D20009047682802D045F0080505E045F40065C5
:100D30006269012101989047C4E9015765283DD0B7
:100D400019DC58287AD00CDC452837D004DC25285B
:100D500026D0412831D131E046282FD047282CD148
:100D60002CE05B2877D0612828D063287CD06428C9
:100D700023D15AE0D0E06F2848D008DC66281DD087
:100D800067281BD0692821D06E2816D127E070284B
:100D900045D0732868D0752847D078280DD14DE00C
:100DA000A1690B988847054625283FF469AFE1699A
:100DB0000B9888476D1C3FF46AAFB3E023466A4640
:100DC0006FF001000B99FFF755FB9EE045F04000E6
:100DD0006060A80723464FF0000236D43EE0E807E3
:100DE0007FF447AF2068011D21600068290501D507
:100DF00006701BE7290701D5068017E7A90703D569
:100E0000F117C0E9006111E706600FE745F0400007
:100E10006060A80723464FF0080216D41EE040F693
:100E20000E0125EA0100606016E045F040006060B8
:100E3000A80723464FF00A0207D40FE045F0400010
:100E40006060A80708D5234610226FF001000B99B7
:100E5000AFF3008059E007E0234610226FF0010055
:100E60000B99FFF75DF950E04FF000094F464B46F4
:100E7000632802D05B2806D040E0E80601D40120B8
:100E8000A06001273AE062690121019890475E283D
:100E900005D14FF0010962694946019890472169DF
:100EA00039B900210A46534643F82120491C082934
:100EB000FADBB0B3216969B9C11700EBD1625311F4
:100EC0000AEB830122F01F02821A01200B68904076
:100ED00003430B6062690121019890475D28E8D1C6
:100EE000B9F1000F09D00020514651F82020D2431B
:100EF00041F82020401C0828F7DB02AB224600976F
:100F00006FF001000B99FFF7B1F900280CDA401CD3
:100F100008D1BBF1000F05D04FF0FF300DB0BDE898
:100F2000F08FFFE74046F9E7E90701D108F1010832
:100F300006444FF0000B79E6CCCCCC0C0029A8BFBE
:100F40007047401C490008BF20F00100704710B4F2
:100F5000B0FA80FC00FA0CF050EA010404BF10BCA7
:100F6000704749B1CCF1200421FA04F411FA0CF1D4
:100F700018BF012121430843A3EB0C01CB1D4FEA0D
:100F800000614FEA102042BF002010BC704700EB08
:100F9000C35010440029A4BF10BC7047401C490036
:100FA00008BF20F0010010BC704710B5141E73F18B
:100FB000000408DA401C41F1000192185B411A4319
:100FC00001D120F0010010BD2DE9F04D92469B4665
:100FD00011B1B1FA81F202E0B0FA80F2203290460B
:100FE000FFF7E0FD04460F4640EA0A0041EA0B0124
:100FF00053465A46084313D0114653EA010019D00C
:10100000C8F140025046FFF7DCFD05460E4650464B
:1010100059464246FFF7C6FD084305D0012004E0CB
:1010200020463946BDE8F08D0020054346EAE076CB
:101030002C4337430A986305E40AA0EB080000221A
:10104000FD0A44EA47540A3002D500200146E9E788
:10105000010510196941DDE9084500196941BDE83C
:10106000F04DA2E77F2801D9002208E0064A02EBF2
:101070005002C007127800D1120902F00F020120BD
:1010800090400840704700007432000000BE704776
:101090002DE9F04146F22018C4F20008B8F800002B
:1010A000B8F8201041F2806501EA0006B7B20024CA
:1010B000C2F2000527FA04F0C00704D055F8241046
:1010C00009B1204688470134102CF3D1A8F81060EC
:1010D000BDE8F081B0B543F22404C4F20804002551
:1010E000C8200121257100F082F8257020780028A1
:1010F000FCD1207840F00200207000BF20788007EB
:10110000FCD4002004F8020C14F8020C0028FBD1D7
:10111000002004F11C0100BF11F8102002F07F0232
:1011200001F8102011F91020002AFBD40130032807
:10113000F2D1012000F00BF84EF2BB420021C4F2C4
:10114000010201201170BDE8B04000F027B880B561
:101150000122EFF3108182F3108841F2C862C2F2DB
:10116000000232F810308BB94EF2FE3C43F2EC3301
:10117000C4F2010CC0F20003BCF800E033F81030F8
:1011800043EA0E0343F42543ACF8003032F8103044
:10119000013322F8103081F3108880BD0122EFF373
:1011A000108182F3108841F2C862C2F2000232F864
:1011B000103023B132F81030013B22F8103032F8F1
:1011C00010208AB94EF2FE3CC4F2010C43F2EC321C
:1011D000BCF80030C0F2000232F8100043F425429F
:1011E00022EA0000ACF8000081F31088704741F259
:1011F0003C62C2F20002126801FB00F041F20021E1
:10120000C0F27A018A420FD340F6FF01C0F23D01DD
:1012100011444DF68362C4F21B32A1FB0212110D80
:10122000A0FB0101E9B11FE04CF60021C3F69A31A1
:1012300048F63813C0F24103B1FBF2F1984207D2ED
:101240004FF47A7200FB02F0B0FBF1F0800808E086
:101250008900B0FBF1F0984206D24FF47A7100FB9E
:1012600001F028B100F073BD4FF0FF3000F06FBD0A
:1012700070477047022818BF704741F2C06043F2C0
:101280003431C2F20000C0F2000100F0ABB900003E
:101290002DE9F0410246087C00250124032888BF7F
:1012A000012504FA00F015610D7CD06049F20000C0
:1012B000C4F2160000EB05200027C2E90110D1E9B5
:1012C0000605D1F82080C2E905074FF0004CD56132
:1012D000EFF3108084F3108844F210050C7CC4F204
:1012E00008052E682CFA04F4A6432E602E6880F3BD
:1012F00010884FF42546906806609068C762906831
:10130000C7639068876491E86100F60503289068D8
:1013100008BF06F58036C6629068C0F810C09068B5
:10132000C0F814C09068C0F818C090684762906810
:101330008762D8F824009668F061D8F8280096688B
:10134000306290686E1E8666906846665068D8F86F
:1013500074C0006A00F1540490F86C60FE40F60717
:101360000DD03B4654F827609568042F08BF03232F
:10137000032F08BF042305EB8303013EDE6401371E
:10138000062FE9D19068002383639068C0F8883005
:10139000D8F8740030B9D8E90B03400340EA437031
:1013A0004CEA000C98F86C004FF4A00300289068F9
:1013B00008BF4FF4AA0341F2B87E03649068032388
:1013C000C0F834C090684EF2001C0363936801209B
:1013D0001863D2E90237CEF2000CC2F2000EDF60D1
:1013E0004C6946F20033002CC4F200031BD4497C44
:1013F0000CEB0405090185F800134EF8242053F87E
:10140000241021F4803143F8241053F8241004F000
:101410001F0164090CEB84058840BFF35F8FC5F89A
:1014200080014CF82400D8F83C0000281ED498F81D
:1014300034100CEB0004090184F800134EF820204E
:1014400053F8201000F01F0421F4803143F82010DD
:1014500053F820100125400905FA04F40CEB80052F
:10146000BFF35F8FC5F880414CF82040D8F84000AA
:1014700000281ED498F835100CEB0004090184F8FC
:1014800000134EF8202053F8201000F01F0421F420
:10149000803143F8201053F820100125400905FA47
:1014A00004F40CEB8005BFF35F8FC5F880414CF866
:1014B0002040D8F8440000281ED498F836100CEBD1
:1014C0000004090184F800134EF8202053F820107E
:1014D00000F01F0421F4803143F8201053F820104D
:1014E0000125400905FA04F40CEB8005BFF35F8F7A
:1014F000C5F880414CF82040D8F8480000281ED498
:1015000098F837100CEB0004090184F800134EF82A
:10151000202053F8201000F01F0421F4803143F8FC
:10152000201053F820100125400905FA04F40CEBB3
:101530008005BFF35F8FC5F880414CF82040D8F894
:101540004C0000281ED498F838100CEB0004090158
:1015500084F800134EF8202053F8201000F01F04E8
:1015600021F4803143F8201053F820100125400960
:1015700005FA04F40CEB8005BFF35F8FC5F88041DA
:101580004CF82040D8F8500000281ED498F83910A4
:101590000CEB0004090184F800134EF8202053F8E6
:1015A000201021F4803143F8201053F8201000F06F
:1015B0001F01400901230CEB800703FA01F1BFF37F
:1015C0005F8FC7F880114CF8201045F25401C0F22B
:1015D000470100201160BDE8F081D0E9021200202F
:1015E0004A60704780B545F25422C5F24F0202604E
:1015F000084600F0D1FF002080BD0A780123934007
:1016000013F0060F05D00B6CDB681B781B0700F18D
:10161000E0802DE9F04748F20003C4F2110343EAE9
:101620000222D1E90E364FF0000843628378C66289
:1016300023F003035E1C86704E68026280F800800F
:10164000C161C0F8288016B943F002038370CF6AE5
:101650004EF2001C07F01F034FF0010ECEF2000CFB
:101660000EFA03F30CF180047E0991F8285044F837
:101670002630BFF34F8F46F2003AC4F2000ABFF3A0
:101680006F8F5AF827602A0126F480364AF82760BF
:101690000CF540755AF82760EA554A6941F2B87965
:1016A00002F01F06C2F200090EFA06F6530949F8C5
:1016B00027000F7C44F82360BFF34F8FBFF36F8F79
:1016C0005AF822303E0123F480334AF822305AF887
:1016D0002230AE5449F82200CA690B7E02F01F0680
:1016E0000EFA06F6570944F82760BFF34F8FBFF391
:1016F0006F8F5AF822601B0126F480364AF8226068
:101700005AF82260AB5449F822004A6A91F8203016
:1017100002F01F060EFA06F6570944F82760BFF3D9
:101720004F8FBFF36F8F5AF822401B0124F480348F
:101730004AF822405AF82240AB5449F82200EFF30D
:1017400010828EF3108844F204050B78C4F2080569
:101750004FF000442E6824FA03F326EA03032B60BB
:101760002B6882F31088026A82F80280026A82F88B
:101770000480026A82F80980026A82F80A80026A9A
:1017800082F80B80026AA2F81A800A780EFA02F335
:1017900040F2F932134202D0036A4024DC74036A37
:1017A00006241C770B780EFA03F3134203D0026A67
:1017B0004FF478439382D1E90163CA684FEAC202C9
:1017C00042EA03123EB1032E08BF42F04002F22665
:1017D00002E00322ADE0E226036A02271A70026AE1
:1017E000002596710A6C936907EA4307082B036A80
:1017F00008BF0A275F73066AD2E901373572166897
:10180000DB0126F00106022EDEB267F345160AD18F
:10181000036AFF275F701268022A026A08BF46F057
:101820001006D67117E0036ADE71D268036A9778F2
:101830005F7057781E7807F0030706F0FC06374400
:101840001F70D7789F74DF79127807F0A30702F032
:101850005C023A44DA710022C369C0E90322C0E99C
:101860000522D1F840E05B699EF800105AF8234049
:1018700003F01F0524F480344AF823405AF823402B
:10188000012404FA05F60CF5C0755B09BFF35F8F00
:1018900045F823604CF82360C369DB6A5AF823607B
:1018A00026F480364AF823605AF8236003F01F06B6
:1018B00004FA06F65B09BFF35F8F45F823604CF826
:1018C0002360C369DB695AF8236026F480364AF83E
:1018D00023605AF8236003F01F0604FA06F65B093A
:1018E000BFF35F8F45F823604CF82360C3695B6AE0
:1018F0005AF8236026F480364AF823605AF82360A9
:1019000003F01F06B4405B09BFF35F8F45F8234027
:101910004CF823401C23076A63F39F01B970DEF87B
:10192000141044F65513C5F24333C0E90131BDE844
:10193000F0471046704780B5D0F820E09EF802C00E
:101940000CF07B038EF80230837803F00303A2EBE4
:10195000030C0B44026AC0E9033C937843F0800314
:101960009370827802F00302022A05D10988006A86
:1019700041F47E41C18102E00978006AC170002013
:1019800080BD000000F01AF800F0DAFDFEE74EF22C
:101990002000C4F201008179006841F22042C2F2C5
:1019A0000002C0F3026052F8211021FA00F041F267
:1019B0003C61C2F2000108607047000010B54EF6AD
:1019C0000850CEF200004FF47001C0F8801040F2D1
:1019D0000001C0F20001016000200024FFF74AFC72
:1019E00000F0D0F80120FFF745FC41F22000C2F2E0
:1019F000000080F30A88002000F032F8FFF7C7FFEC
:101A0000FFF768FB0320FFF7A2FB40F61050C4F27B
:101A100008004FF6FF7100BF20F8141001340C2CA1
:101A2000FAD10320FFF7BAFB0320FFF790FB042055
:101A3000C4F20E000021016041608160C16003209A
:101A4000FFF7ACFB0220FFF715FC012000F008F8BF
:101A500000F038F90020BDE8104000F031B9000076
:101A6000F0B581B043F29035C0F200052E6804460F
:101A700076B16868071D00BF7879844204D157E9C0
:101A80000101091AFEF725FB013E07F10C07F3D10E
:101A9000AE6886B1E86800F1080500BF6879844245
:101AA00005D155E902022968121AFEF7F9FA013E3A
:101AB00005F11005F2D101B0F0BD80B541F2F8603A
:101AC00043F29C41C2F20000C0F20001FFF795FD15
:101AD00000B980BD43F2887043F27271C0F2000019
:101AE000C0F20001292200F049F880B541F22870C7
:101AF00043F20C51C2F20000C0F20001FFF77DFD7D
:101B000000B980BD43F2887043F27271C0F20000E8
:101B1000C0F20001302200F031F880B541F2587077
:101B200043F27C51C2F20000C0F20001FFF765FDF4
:101B300000B980BD43F2887043F27271C0F20000B8
:101B4000C0F20001372200F019F880B541F2887028
:101B500043F2EC51C2F20000C0F20001FFF74DFD6C
:101B600000B980BD43F2887043F27271C0F2000088
:101B7000C0F200013E2200F001F8000000BE00BFEC
:101B8000FEE700002DE9F0414EF2FE34C4F20104FC
:101B90004AF203504CF200152080C4F201050120E6
:101BA000A88000BFA8880028FCD147F200010120CE
:101BB000C4F2000128808860086041F2204642F6A5
:101BC000005041F20022C2F20006C0F23110C0F211
:101BD0007A02C6E9000243F200604FF40041C0F20D
:101BE0006E10C6E902104CF20020C0F6EB304EF247
:101BF00020073161C4F201077061B879396856F87D
:101C00002000C1F3026141F23C68C840C2F2000802
:101C1000C8F8000000206075092087F8820094F859
:101C2000820018B994F88300800744D094F88200A9
:101C300050B9012084F88200C8200121FFF7D7FAAB
:101C400094F882000128FBD1002084F8830084F8F6
:101C500082000020B87400BF387F0007FCD543F233
:101C6000021038810020B872387F8006FCD503202E
:101C7000287741F22120C2F2010038600520B871B6
:101C8000B879396856F82000C1F30261F022C840E3
:101C9000C8F8000042F20800C4F20000F12101710E
:101CA0000121017002714FF42540397487F8321018
:101CB0002080BDE8F0814FF47A70FFF7DAFAC8E7C8
:101CC0007047000070B584B048F248060320C4F2A3
:101CD0000006FFF73CFA6FF0FF0043F2A8343060D3
:101CE0004FF0FF300021C0F200040122CDE90200D4
:101CF00054F8213002FA01F5002B18BFA843013136
:101D00001129F5D14EF280320190002001A9CEF2C6
:101D1000000200BF51F8203006EB8005AB6242F8AC
:101D2000203001300328F5D10320FFF737FA46F2BF
:101D300000310020C4F2000154F820200AB141F81B
:101D400020200130112804BF04B070BDF4E7013831
:101D50000028FCD1704700002DE9F04F81B0044607
:101D6000008800285AD043F240084EF2BB4B0025B1
:101D7000C4F208080FF2AC0AC4F2010B4FF00109DB
:101D8000002700BF60685AF8272000EBC5004168B3
:101D900091423CD100689BF8001000F0B85009FA5D
:101DA00007F6B0F1807F06EA010015D150B9012095
:101DB000FFF7CDF99BF8000030438BF800000120BD
:101DC000FFF7ECF918F91700002820D418F81700CD
:101DD00040F0800015E000BF50B10120FFF7B7F9D7
:101DE0009BF80000B0438BF800000120FFF7D6F904
:101DF00018F91700B0F1FF3F09DC18F8170000F0E0
:101E00007F0008F81700C8200121FFF7F0F901371B
:101E1000032FB7D1208801358542B1D301B0BDE889
:101E2000F08F00BF0204000003040000040400005F
:101E300080B582B0019041F2F860C2F2000001A9C1
:101E40000122FFF778FD41F63D00C2F2000000BF1D
:101E500001780029FCD000210170019802B080BDFA
:101E600041F2FC70C2F2000001210160704710B520
:101E700041F2D864C2F2000443F2F831C0F200012A
:101E80002046FFF705FA2046BDE81040FFF7A5BB46
:101E900010B584B0EFF3038146F2003E6FF35F218B
:101EA000C4F2000EA1F110035EF8231041F2B872E3
:101EB00021F480314EF82310C2F200025EF82310A4
:101EC00052F8234061680A68012A40F0A780D4E9EB
:101ED0000220096A4EF2802CCEF2000C9060A068BD
:101EE00000228264A068C264A06802655EF82300D4
:101EF000012220F480304EF823005EF8230003F026
:101F00001F0002FA00F05A09BFF35F8F4CF822005D
:101F100091F86C30D80716D0CA6B002A13D45EF83B
:101F20002200012320F480304EF822005EF82200C7
:101F300002F01F0003FA00F05209BFF35F8F4CF864
:101F4000220091F86C30980714D50A6C002A11D43D
:101F50005EF82200012320F480304EF822005EF863
:101F6000220002F01F00BFF35F8F03FA00F0520956
:101F70004CF822004A6C002A11D45EF8220001239A
:101F800020F480304EF822005EF8220002F01F009C
:101F9000BFF35F8F03FA00F052094CF822008A6CFD
:101FA000002A11D45EF82200012320F480304EF87C
:101FB00022005EF8220002F01F00BFF35F8F03FAD9
:101FC00000F052094CF82200CA6C002A11D45EF8C5
:101FD0002200012320F480304EF822005EF8220017
:101FE00002F01F00BFF35F8F03FA00F052094CF8B4
:101FF0002200096D002911D45EF82100012220F48D
:1020000080304EF821005EF8210001F01F00BFF380
:102010005F8F02FA00F049094CF821006169A1B113
:10202000A06930B1D0E900C283680393CDE901C251
:1020300000E001A8E36900224260826003608847F3
:10204000A06910B101AB0ECB0EC004B010BD0000F2
:1020500088B0FFF732FDFFF778FDFFF746FDFFF789
:102060005CFDFFF704FF41F23C4841F2406941F654
:102070003E0541F63F0A41F6410741F2FC7BC2F2C0
:102080000008C2F20009C2F200050026C2F2000AEE
:10209000C2F20007C2F2000B41F63C00C2F200009F
:1020A0000068012879D198F8030043F219713028AB
:1020B000C0F2000107D098F80100042809D80FF2F7
:1020C000DC3151F820100FF2E83000F059FA98F89E
:1020D00001000E2804D198F8020098F803102FE0B0
:1020E00098F8032098F8043098F80570303289F891
:1020F000022003F1300298F8063089F8032007F136
:10210000300289F8042003F1300298F8073089F88A
:10211000052003F1310298F8083089F8062003F110
:10212000300298F8093098F8021041F64107303033
:10213000C2F2000789F8072003F1300289F808206D
:1021400001F1300289F800006FF02F0050FA82F19F
:10215000D9A089F8012000F00BFA99F80300A0F14A
:102160003001D7A000F004FA99F80400A0F1300182
:10217000D5A000F0FDF941F22870C2F200004946F6
:102180000922FFF7D8FB00BF28780028FCD041F6D1
:102190003C00C2F200002E700660DAF80000012850
:1021A00040F0F68041F23B5041F2706241F27863B8
:1021B00041F6140441F25066C2F20000C4A1C2F21A
:1021C0000002C2F20003C2F20004C2F20006CDE92E
:1021D0000064FDF789FF41F61401C2F2000188781E
:1021E0003A2811D143F26B70C0F200000C4600F0A7
:1021F000C7F92078D4F8011040F21402C2F20002AC
:102200001070C2F8011028E0474643F2297841F2E5
:102210007464C0F20008C2F2000408464146224637
:10222000FDF762FF2068FEF741FACB460DF10C097D
:1022300002460B464846B4A100F0A2FB4846D946E8
:1022400041F2FC7B4146B84641F641072246C2F2C4
:10225000000BC2F20007FDF747FF41F25060C2F2E7
:102260000000027841788078692A03D16D2908BF7F
:1022700075282CD0642A4FF0000603D1682908BFC6
:10228000742835D0682A03D1752908BF6D2838D045
:10229000742A03D1652908BF6D283BD0502A08BF96
:1022A000482940D0632A03D16F2908BF6E2843D044
:1022B000742A5DD1752908BF722859D143F2647020
:1022C00041F6380BC0F20000C2F2000B3CE041F2D4
:1022D0005060C2F20000007900267838C1B20329AC
:1022E00046D28BA08DA250F8210052F821B02BE0ED
:1022F00043F2417041F27C6BC0F20000C2F2000B6D
:1023000022E043F2487041F6000BC0F20000C2F236
:10231000000B19E043F24F7041F6340BC0F200009D
:10232000C2F2000B10E043F2567041F6100BC0F2FF
:102330000000C2F2000B07E043F25D7041F24C6B0B
:10234000C0F20000C2F2000B41F27464C2F2000459
:1023500094ED000A00F0FAF8206841F63F0ACBF845
:10236000000041F2FC7B0026C2F2000AC2F2000B20
:1023700041F25060C2F200002021FDF7AAFE41F6B2
:102380001400C2F200002021FDF7A3FECAF800608D
:102390003868012804D164A067A100F0F1F83E601C
:1023A000DBF8000001287FF477AE43F26B7040F257
:1023B0001401C0F20000C2F2000100F0E1F841F6A1
:1023C0000400C2F2000090ED000A43F22C70C0F24B
:1023D000000000F0BBF841F60800C2F2000090EDEA
:1023E000000A43F23370C0F2000000F0AFF841F68B
:1023F0000C00C2F2000090ED000A43F23A70C0F205
:10240000000000F0A3F841F27C60C2F2000090ED01
:10241000000A43F24170C0F2000000F097F841F664
:102420000000C2F2000090ED000A43F24870C0F2D2
:10243000000000F08BF841F63400C2F2000090ED8D
:10244000000A43F24F70C0F2000000F07FF841F63E
:102450001000C2F2000090ED000A43F25670C0F284
:10246000000000F073F841F24C60C2F2000090ED01
:10247000000A43F25D70C0F2000000F067F841F618
:102480003800C2F2000090ED000A43F26470C0F21E
:10249000000000F05BF8CBF80060FDE519370000A4
:1024A0000C370000123700001E37000023370000F1
:1024B00074312E74787400006E302E76616C0000DA
:1024C0006E312E76616C00006E322E76616C0000EB
:1024D0007B226964223A222564222C22766572735B
:1024E000696F6E223A222566222C22706172616D1C
:1024F00073223A7B222533315B5E225D223A22250C
:102500005B5E225D227D7D00252E3466000000008A
:102510002C370000333700003A3700000418002041
:10252000081800200C18002070617373776F7264B4
:102530002E747874000000003132333435360000D8
:1025400080B5FFF785FD002080BD00009FED071AD4
:10255000014620EE010A43F29970BDEEC00AC0F2B6
:10256000000010EE102A00F0FBB900BF00401C462E
:102570000A46014643F29970C0F2000000F0F0B93B
:102580000A46014601A000F0EBB900BF25733D22C9
:10259000257322FFFFFF000070B50446FFF7DCFB48
:1025A00041F2D46CEFF31080012181F31088C2F264
:1025B000000CDCF8001039B940F60351C4F20801F0
:1025C00000220A7040220A70DCF800100131CCF8B9
:1025D000001080F31088208818B340F6000E002108
:1025E000C4F2080E606800EBC10250F83130526846
:1025F000DD034FEA1220D2B20BD50EEB801555F851
:10260000226026F4803645F8226023F4803645F8AF
:1026100022600EEB8010013140F822302088814288
:10262000E0D30120EFF3108180F31088DCF8000084
:1026300020B1DCF800000138CCF80000DCF8000024
:1026400038B940F60350C4F208000022027080221C
:10265000027081F3108870BDB0B584B00446806A02
:1026600040B1D0E900CED0E90253CDE900CECDE9AA
:10267000025300E06846E369D4F824C01B78E56A99
:10268000C0E90032C0E90215E047A06A10B19DE838
:102690002E002EC004B0B0BDB0B5EFF303806FF3D1
:1026A0005F20A0F1100541F2B870C2F2000050F8AE
:1026B00025008178036A01F00301022912BF5979CC
:1026C000198A6FF35F211A79D40602F0380203D514
:1026D0001C7FE40708BF40321C7904F0C7041C715A
:1026E000436A0BB1FFF7B8FF46F20030C4F20000B6
:1026F00050F8251021F4803140F8251050F82500BD
:10270000B0BD10B582B0EFF3038040F2FC7101EA76
:10271000800046F2C021C4F20001425822F4803207
:10272000425041F2B872C2F200024158104450F8CF
:10273000404CA07800F00302206A022A12BF4179BF
:10274000018A6FF35F21A069019198B1606901A9C5
:10275000FDF7A6FCA0786169A26900F003000144BE
:10276000101A6161A0610ED1606A60B1204600213B
:10277000012203E0606A30B12046042202B0BDE8C5
:102780001040FFF769BF02B010BD10B5EFF3038032
:102790006FF35F20A0F1100441F2B870C2F20000A4
:1027A00050F82400016A8A7802F07B028A70416A3C
:1027B00019B100210222FFF74FFF46F20030C4F2A8
:1027C000000050F8241021F4803140F8241050F813
:1027D000240010BDEFF3038040F2FC7101EA800099
:1027E00046F2C021C4F20001425822F48032425025
:1027F00041F2B872C2F200024158104450F8400C45
:10280000C1694A6B0169C2B9C1B1817801F00302A3
:10281000C168022A05D10988026A41F47E41D1814A
:1028200002E00978026AD1708178026901F003033D
:10283000D11AC26801611A44C26071B9016A8A780A
:1028400002F07B0204328A70416A00294FF00001D5
:10285000C1601CBF8022FFF7FFBE7047416802299C
:1028600027D004292BD1826841F23A60C2F20000DD
:102870000378591C017041F23C41C2F20001CA5474
:102880000A780A2A1CBF0022027002780A4412F851
:10289000012C0A2A13D10278114411F8021C0D29C7
:1028A00018BF70470021017041F63C00C2F20000E1
:1028B00003E041F63D00C2F20000012101707047C3
:1028C0004068022818BF704741F63E00C2F200007F
:1028D0000121017070474168022924D0042928D1C0
:1028E000826841F23B60C2F20000037841F23B5142
:1028F000C2F20001CA5402780132027002780A441E
:1029000012F8012C7D2A14D10278114411F8021C0E
:102910007D2918BF704741F63F01C2F20001012234
:102920000A70002104E041F64000C2F200000121DB
:1029300001707047416802290AD004290ED18068CD
:10294000412818BF704741F64100C2F2000003E081
:1029500041F64200C2F20000012101707047000000
:102960000FB4054B10B503A9044A029800F0E6F82D
:1029700010BC5DF814FB0000311E000000000020B8
:102980000FB4084B10B504A902AA039800F0D6F8BA
:10299000044602A9002000F068FC204610BC5DF847
:1029A00014FB00006B3200002DE9FF5F82B00021B4
:1029B000DDE90430020DDDF840B0034318D044F6E1
:1029C0001050A2F2FF3242431514119801281FD073
:1029D000A5EB0B00401C5FEA000A4FF000064E4FCB
:1029E000DFF83891B046504615D5CAF1000413E01F
:1029F000119801244AA3012801D16FEA0B01029822
:102A0000119AC0E90031C0E9024206B0BDE8F09F6A
:102A1000CBF10000DFE704460021404A491842EBB1
:102A20000450CDE9001012E0E00707D032463B46E3
:102A300040464946FDF77DFF8046894632463B4683
:102A400010461946FDF775FF06460F466410002C28
:102A5000EAD1DDE90401DDE90023BAF1000F06DA6D
:102A6000FDF767FF42464B46FDF763FF05E0FDF7C4
:102A7000D2FF42464B46FDF7CEFF04460E460022EB
:102A8000284BFEF75BF803D84FF0FF30014607E014
:102A90000022254B20463146FDF7A4FEFEF736F80E
:102AA000102409E0002C0ADB0A220023FDF727FE90
:102AB000039B30321A55641E50EA0102F2D1641CA5
:102AC000039AC4F111031444119A012A03D001227C
:102AD00008430DD10AE0084304D000204FF0110B49
:102AE000119072E7A3EB0B056D1E0DE05B4504DD55
:102AF0004FF0000205F1010504E003DA4FF0000297
:102B0000A5F10105002AECD002981199C0E9023123
:102B1000C0E9004579E70000000014400000F03FE4
:102B2000300000000000F0430000E03F30380A2889
:102B300001D2012070470020704700002DE9FF4FAF
:102B400095B09B468946064600250FE2252877D199
:102B500000242746F84A0121059400E0044316F8B2
:102B6000013F203B01FA03F01042F7D130782A28C8
:102B700011D06FF02F033078A0F13002092A16D857
:102B8000059A44F0020402EB820203EB4202104475
:102B9000761C0590EFE759F8042B0592002A03DA1A
:102BA000504244F40054059044F00204761C3078FE
:102BB0002E2816D116F8010F44F004042A280DD04F
:102BC0006FF02F023078A0F13003092B09D807EB02
:102BD000870302EB4303C718761CF3E759F8047B1D
:102BE000761C30786C280FD006DC4C2817D068286B
:102BF0000DD06A2814D104E0742810D07A280FD19F
:102C00000DE044F400140AE044F4801401E044F4BC
:102C100040147278824202D104F58014761C761C2E
:102C2000307866280BD013DC582877D009DC0028D0
:102C300075D04528F6D04628F4D047281AD19DE112
:102C400018E0632835D0642879D0652812D195E141
:102C5000702873D008DC6728F1D069286FD06E28FF
:102C60000DD06F2806D1B5E073282CD0752875D00B
:102C7000782874D05A46179990476D1C75E1C4F3B3
:102C80000250022809D003280DD0D9F800100428DA
:102C90000DD00D6009F1040967E1D9F80010EA17B9
:102CA000C1E90052F6E7D9F800100D80F2E70D7087
:102CB000F0E719F8041B8DF8001000208DF80100D2
:102CC000EA46012003E059F804AB4FF0FF306107FA
:102CD0004FF0000102D40DE008F101018846B9422D
:102CE0000FDA8045F8DB1AF808100029F4D108E063
:102CF00008F1010188468142FADB1AF80810002920
:102D0000F6D105985B46A0EB080721463846179A8E
:102D100000F094FA284400EB080507E04DE029E1B3
:102D20000DE01AF8010B5A4617999047B8F10108BF
:102D3000F7D25B4621463846179A13E142E00A2251
:102D40000092C4F302524FF0000A022A08D059F848
:102D500004CB032A4FEAEC710AD00DE029E02AE007
:102D600009F1070121F00702F2E802C1914609E0EA
:102D70000FFA8CFC4FEAEC71042A03D14FFA8CFC59
:102D80004FEAEC71002907DA0A460021DCF1000C59
:102D900061EB02012D2202E0220504D52B228DF8E1
:102DA0000420012203E0E20701D02022F7E7904649
:102DB00059E00A2102E010220DE010214FF0000A34
:102DC00000910BE010224FF0000A44F004040827A1
:102DD000009203E008224FF0000A0092C4F302526E
:102DE000022A05D059F804CB0021032A08D009E0B3
:102DF00009F1070121F00702F2E802C1914605E05E
:102E00001FFA8CFC042A01D10CF0FF0C4FF00008D3
:102E1000220728D5702806D0009B83F0100353EAC0
:102E20000A0305D00EE040228DF80420012208E0BC
:102E30005CEA010206D030228DF804208DF80500EE
:102E400002229046009B83F0080353EA0A030AD14A
:102E50005CEA010201D1620705D530228DF8042019
:102E60004FF001087F1E582804D034A003900EA80C
:102E700002900DE036A0F9E753466046009AFDF750
:102E80003EFC84460398825C0298401E02900270C9
:102E90005CEA0100F0D1029806A9081A00F1200AA4
:102EA000600702D524F4803400E00127574502DD95
:102EB000A7EB0A0000E0002000EB0A010090059853
:102EC0004144401A0590E00306D45B462146179A18
:102ED000059800F0B3F90544002706E001A85A461A
:102EE000C05D179990476D1C7F1C4745F6DBE003DA
:102EF0000CD55B462146179A059800F09FF90544CA
:102F000004E030205A46179990476D1C0099481EDE
:102F100000900029F5DC08E0029802995A460078F2
:102F2000491C0291179990476D1CBAF10001AAF152
:102F3000010AF1DC65E1000009280100303132337B
:102F400034353637383961626364656600000000E5
:102F500030313233343536373839414243444546CF
:102F60000000000000F058F90544761C3078002875
:102F70007FF4ECAD19B02846BDE8F08F620700D4AD
:102F8000062709F1070222F0070CFCE80223E146BC
:102F900003F000485FEA080C02D00FF2702C0DE03D
:102FA0005FEA045C02D50FF2682C07E05FEAC47C9C
:102FB00002D00FF2602C01E0AFF2700C4FF0FF383E
:102FC00023F00043CDF850C065280CD006DC45281E
:102FD00009D046281DD047283DD13DE0662818D0AD
:102FE00067287ED138E00021112F01DB112000E09D
:102FF000781CCDE9000106A90EA8FFF7D5FCDDE994
:103000000F010E9A03910021009207F1010A049129
:103010004DE04FF000400097CDE9011006A90EA841
:10302000FFF7C2FCDDE90F0203920E9B119900220B
:10303000DDF80CA00093049211B9791C00EB010A91
:10304000B7EB0A0004D4C0F1FF3007F1010A049085
:10305000AAEB0700019044E0012F00DA01270021CC
:10306000112F01DD112000E03846CDE9000106A94D
:103070000EA8FFF799FCDDE90F010E9A03910021DC
:1030800004910092BA4621070CD40399514500DA05
:103090008A46BAF1010F05DD009AAAF10101515CDF
:1030A000302908D0B84202DA10F1040F06DA012103
:1030B000CDE9011015E0AAF10101E9E7002805DCDE
:1030C000049901440491AAEB000102E0411C51451E
:1030D00000DD8A460499401A401C01904FF00040E0
:1030E0000290200704D40198504501DBCDF80480FC
:1030F00000208DF84F0002980DF14F07B0F1004FFE
:1031000025D02B200E9002984FF0020800280CDAF0
:10311000404202902D200E9007E00A210298FDF710
:10312000D8FA3031029007F8011DB8F10001A8F17A
:103130000108F2DC02980028EFD1791E0E98087081
:10314000307800F0200040F0450007F8020D12A88A
:10315000C01B00F107081498007800B1012000EBB3
:103160000A01019801EBE07105984144401A401EA4
:103170000590E00306D45B462146179A059800F0B7
:103180005DF805441498007818B15A46179990478D
:103190006D1CE00324D55B462146179A059800F084
:1031A0004DF805441CE00498002807DBDDE9030125
:1031B000884203DD0098405C179901E017993020A0
:1031C0005A469047049805F10105401C0490019867
:1031D000401E019004D12E205A46179990476D1C2D
:1031E000BAF10001AAF1010ADDDC05E017F8010BD4
:1031F0005A46179990476D1CB8F10001A8F10108D3
:10320000F4DC5B462146179A0598ABE62D000000DA
:103210002B000000200000002DE9F04104460025AD
:103220001E461746880404D405E039462020B047DE
:103230006D1C641EF9D52846BDE8F0812DE9F041EA
:10324000044600251E469046C80301D5302700E0FD
:103250002027880404D505E041463846B0476D1C58
:10326000641EF9D52846BDE8F0810A68531C0B603E
:1032700010707047DDDDDDDDDCBBBBDDDDDDDDDD00
:10328000DDDDDDDD9888888888888888777777779E
:10329000778888888555555666666666666666666A
:1032A0006668888883333332222222222222222215
:1032B0002228888D0000006800000068000000607F
:1032C00000010C08000000680000006800000070A9
:1032D0000001090800000068000000680000000804
:1032E000000102080000006800000068840000007F
:1032F0000001010800000020000000200000006024
:1033000000010C03000000200000002000000070FD
:103310000001090300000020000000200000000858
:1033200000000203000000201C00002084000000B8
:10333000000001030A00000040330000000000000C
:10334000000001000801000000000100000300006F
:10335000000001040103000000000104020300005A
:103360000000010501050000000001050205000044
:10337000000001040B050000000001040C05000022
:103380000000010506070000000001050707000016
:1033900004000000A437000008000000B432000060
:1033A00002000000FC3600008C0100008D010000CE
:1033B0008E0100008F0100009201000093010000C7
:1033C000940100009501000098010000990100009F
:1033D0009A0100009B010000C60000009E01000051
:1033E0009F010000A0010000A101000001000200F7
:1033F00008001000200000000000000000E1F505BA
:103400000000000080F0FA02000D00000C00000037
:10341000611E0000000000001C34000000000000DD
:10342000000000000000000000000000000000009C
:10343000000000000000000000000000000000008C
:10344000000000000000000000000000000000007C
:10345000FFFFFFFFFFFF0000DFFFFFFFDFFFFFFFBA
:10346000DFFFFFFFDFFFFFFFDFFFFFFFDFFFFFFFEC
:10347000000000000000000000000000000000004C
:10348000000000000000000000000000000000003C
:10349000000000000000000000000000020000002A
:1034A0000200000000000000000000000C0000000E
:1034B000000000000C000000010000000C000000F3
:1034C000020000000C0000000300000000000000EB
:1034D000000000005D28000000000000E034000053
:1034E00000000000010000000000000004000020B7
:1034F0000F000000FFFF00000000000000000000BF
:1035000000000000FFFF00000000000003000000BA
:103510000200000000000000000000000C0000009D
:10352000040000000C000000050000000C0000007A
:10353000060000000C000000070000000000000072
:1035400000000000C128000000000000503500000D
:103550000000000001000000000000000800002042
:103560000F000000FFFF000000000000000000004E
:1035700000000000FFFF0000000000000400000049
:103580000200000000000000000000000C0000002D
:10359000080000000C000000090000000C00000002
:1035A0000A0000000C0000000B00000000000000FA
:1035B00000000000D728000000000000C035000017
:1035C0000000000001000000000000000C000020CE
:1035D0000F000000FFFF00000000000000000000DE
:1035E00000000000FFFF00000000000005000000D8
:1035F0000200000000000000000000000C000000BD
:103600000D0000000C0000000E0000000C00000087
:103610000F0000000C00000010000000000000007F
:1036200000000000352900000000000030360000D6
:103630000000000001000000000000001000002059
:103640000F000000FFFF000000000000000000006D
:1036500000000000FFFF0000000000000000000864
:1036600000000008003C0000003C000000000000DA
:1036700090A1000110A2000110A2000190A200017F
:1036800090A2000190A10001C0A1000140A2000190
:1036900040A20001C0A20001C0A20001C0A100011F
:1036A00010A1000110A1000104A1000100A100016E
:1036B00080A1000104A2000100A2000184A2000177
:1036C00080A2000180A10001E0A1000160A2000130
:1036D00060A20001E0A10001000000680000006895
:1036E000000000700000007000000060000000603A
:1036F000001C0020001C00200000002000000068CA
:1037000000000068200000202000002041484541C2
:103710004400424548494E440053544F50004C45E4
:1037200046540052494748540025660078302E76AA
:10373000616C0078312E76616C0078322E76616C87
:103740000078332E76616C0078342E76616C0078C8
:10375000352E76616C0078362E76616C0078372EC7
:1037600076616C0078382E76616C0074332E747834
:1037700074007372632F64656275675F756172743C
:103780002F756172742E63004653505F5355434347
:103790004553533D3D6572720025733D2564FFFF1F
:1037A000FF00000000000068000000680001000841
:1037B00000000068000000680001000820000020F0
:1037C00020000020000000033C14002044180020CA
:1037D0000000000300000406362E342E300042752F
:1037E000696C7420776974682052656E65736173C3
:1037F00020416476616E63656420466C6578696219
:103800006C6520536F667477617265205061636BDD
:103810006167652076657273696F6E20362E342E6F
:043820003000000074
:020000040100F9
:04A10000FFFFFFFF5F
:020000040100F9
:04A20000FFFDFFFF60
:020000040100F9
:04A28000F8F8FFFFEC
:040000050000198559
:00000001FF
