:020000040800F2
:1000000038090024AD02000829700008C96C0008F6
:100010002170000809140008D993000800000000AE
:10002000000000000000000000000000497400080B
:100030001114000800000000A1700008A974000855
:10004000CB020008CB020008CB020008CB0200085C
:10005000CB020008CB020008CB020008CB0200084C
:10006000CB020008CB020008CB020008CB0200083C
:10007000CB020008CB020008CB020008CB0200082C
:10008000CB020008CB020008CB020008CB0200081C
:10009000CB020008CB020008CB020008CB0200080C
:1000A000297700084977000839770008CB02000853
:1000B000CB020008CB020008CB020008CB020008EC
:1000C000CB020008CB020008CB020008CB020008DC
:1000D000CB020008B9930008C9930008CB020008BE
:1000E000CB020008CB02000800000000CB02000891
:1000F000CB020008CB020008CB020008CB020008AC
:10010000CB020008CB020008CB020008CB0200089B
:10011000117A0008CB020008CB020008CB020008CD
:10012000CB020008CB020008CB020008CB0200087B
:10013000CB020008CB020008CB020008CB0200086B
:1001400000000000000000000000000000000000AF
:10015000CB020008CB020008CB020008CB0200084B
:10016000CB020008CB020008CB020008CB0200083B
:10017000CB020008CB020008CB020008CB0200082B
:10018000CB020008CB020008CB020008CB0200081B
:10019000CB020008CB020008CB020008CB0200080B
:1001A000CB020008CB020008CB020008CB020008FB
:1001B000CB020008CB020008CB020008CB020008EB
:1001C000CB020008CB020008CB020008CB020008DB
:1001D000CB020008CB020008CB020008CB020008CB
:1001E000CB020008CB020008CB020008CB020008BB
:1001F000CB020008CB020008CB020008CB020008AB
:10020000CB020008CB020008CB020008CB0200089A
:10021000CB020008CB020008CB020008CB0200088A
:10022000CB020008CB020008CB020008000000004F
:10023000CB020008CB02000800000000CB0200083F
:10024000CB020008CB020008CB020008CB0200085A
:10025000CB020008CB020008CB020008CB0200084A
:10026000CB020008CB020008CB020008CB0200083A
:10027000CB020008CB020008CB02000800000000FF
:10028000CB020008CB020008CB02000800000000EF
:1002900000000000CB020008DFF80CD000F00EFEDA
:1002A00000480047D19400083809002407488047D7
:1002B0000748804707480047FEE7FEE7FEE7FEE7FE
:1002C000FEE7FEE7FEE7FEE7FEE7FEE7291400088B
:1002D00099750008990200082DE9F05F0546002095
:1002E00092469B4688460646814640241BE02846A7
:1002F00041464746224600F074F853465A46C01A13
:10030000914110D311461846224600F05BF82D1A91
:1003100067EB01084F4622460120002100F052F809
:1003200017EB00094E41201EA4F10104DFDC484612
:1003300031462A464346BDE8F09FD2B201E000F8BC
:10034000012B491EFBD270470022F6E710B5134679
:100350000A4604461946FFF7F0FF204610BD00008C
:100360000FB400B58DB010A909900B9000914FF01B
:10037000FF300A9000200C90054806900548079031
:100380006A4609A80F9900F0B3FB0DB05DF814FBA5
:100390000D0B00082B0B000830B50B460146002062
:1003A0002022012409E021FA02F59D4205D303FA37
:1003B00002F5491B04FA02F52844151EA2F10102B8
:1003C000F1DC30BD202A04DB203A00FA02F10020E3
:1003D00070479140C2F1200320FA03F31943904083
:1003E0007047202A04DB203A21FA02F000217047EE
:1003F00021FA02F3D040C2F120029140084319468D
:1004000070472DE9FF4F1C4681B00021D4E90167F8
:1004100091464FF0FF358A468846A1696D1C0298C7
:100420008847216A834688470028F6D1BBF1FF3F01
:100430000CD026F4C066002F1ADD700615D5BBF16E
:100440002B0F0AD0BBF12D0F0FD104E04FF0FF307E
:1004500005B0BDE8F08F46F48066A1696D1C029876
:1004600088477F1E8346002F02DDBBF1300F03D08B
:10047000B9F1000F2AD025E0A1696D1C46F4007681
:100480007F1E029888478346002F05DDBBF1780F59
:1004900006D0BBF1580F03D0B9F1000F10D011E016
:1004A000B9F1000F02D0B9F1100F0BD1A1696D1C89
:1004B00026F400767F1E029888478346102000E0CD
:1004C000082081464FEAE970009017E00A20F8E71B
:1004D0004346AAFB092803FB0980DDF800C07F1E04
:1004E0000AFB0C0112EB0B0A41EBEB78A16946F415
:1004F000007605F10105029888478346002F06DD46
:100500004946584600F009FD5FEA000BE0D5E16975
:1005100002988847B00502D46FF0010098E7F00711
:1005200018D1700610D57005514605D50023D1EBC2
:10053000030163EB080200E042462068031D2360CC
:100540000068C0E9001205E02068011D2160006814
:10055000C0E900A828467BE72DE9FF5F1D464FF064
:10056000FF3BD5E9014691465F464FF00008A96977
:100570007F1C01988847296A824688470028F6D15F
:10058000BAF1FF3F0CD024F4C064002E19DD6006E0
:1005900014D5BAF12B0F09D0BAF12D0F0ED103E00B
:1005A000584604B0BDE8F09F44F48064A9697F1CFC
:1005B00001988847761E8246002E02DDBAF1300F80
:1005C00003D0B9F1000F26D032E0A969761E44F4B9
:1005D00000747F1C019888478246002E05DDBAF121
:1005E000780F06D0BAF1580F03D0B9F1000F10D030
:1005F0001EE0B9F1000F02D0B9F1100F18D1A969AE
:10060000761E24F400747F1C0198884782461020CF
:1006100002E0082000E00A20814609E008FB090802
:10062000A969761E44F400747F1C019888478246AD
:10063000002E05DD4946504600F06FFC0028EDDA3B
:10064000E96901988847A00502D46FF00100A8E786
:10065000E00725D1600613D5600502D5C8F100007A
:1006600000E0404629680A1D2A600968220501D574
:10067000087015E0220701D5088011E008600FE03E
:100680002868011D29600068210502D580F80080D6
:1006900006E0210702D5A0F8008001E0C0F8008044
:1006A00038467EE72DE9FF5FD2E901A74FF0000849
:1006B000916999461446DDF838B046460198884756
:1006C000054659EA0B0005D009E0A169761C01989E
:1006D00088470546216A284688470028F5D1681CC6
:1006E00003D05FEACA7005D015E04FF0FF3004B0C8
:1006F000BDE8F09F2068011D2160D0F800800AE06D
:100700005FEACA7001D108F8015BA169761C7F1EFF
:10071000019888470546002F1ADD681C18D0B9F1EA
:10072000000F0DD0E81705EBD060421120F01F003C
:1007300059F822102A1A012090400142E0D107E026
:10074000BBF1000FDCD1216A284688470028D7D0AA
:10075000E16901988847BBF1000F07D1002E05DD44
:100760005FEACA7002D1002188F80010A068B84280
:1007700003DDBBF1000F03D017B16FF00100B6E746
:100780003046B4E72DE9FF4F087883B09946FF283B
:1007900005D0491C2D2804D00024002008E00020AA
:1007A0000BE00124F9E700EB800003EB4000491C5B
:1007B0000B78FF2BF7D104B1404200230293147849
:1007C00019461D462D2C01D02B2C04D1521C2D2C4A
:1007D00013D000240294AA461478FF2C0FD00A25C7
:1007E000A3FB057801FB05814FF0000C03FB0C1106
:1007F000521CE3194AEB0101EEE70124EAE78144C8
:1008000053EA010002D019F5C87F06DA03980021E7
:10081000C0E9001107B0BDE8F08F0025AE4E2F46AD
:10082000DFF8B882184600F07AFDCDE90001B9F191
:10083000000002DAC9F1000400E004460023A74AE0
:100840001AEB030B42EB045A12E0E00707D02A46EA
:1008500033463846414600F020FA074688462A4685
:1008600033461046194600F018FA05460E46641045
:10087000002CEAD1DDE90001B9F1000F5A465346D8
:1008800006DA00F07CFA3A46434600F078FA05E0D2
:1008900000F003FA3A46434600F0FFF9029A0AB123
:1008A00081F00041039AC2E90001B3E72DE9FF4F4F
:1008B0001F468DB0D7E901464FF0FF382E20454640
:1008C0004FF000090B90B9696D1C0E988847396A82
:1008D000824688470028F6D1BAF1FF3F0AD024F4B7
:1008E000D064002E11DDBAF12B0F08D0BAF12D0F14
:1008F0000BD102E0404611B08DE744F48064B96941
:100900006D1C0E9888478246761E6946600501D5A3
:100910002D2000E02B208DF8000001F1010B0DF1DE
:10092000200809E0B9696D1C0E98884782460F9827
:1009300044F40074761E0560002E02DDBAF1300F1B
:10094000F0D00B998A453ED144F0800406E00F991F
:10095000681CA9F1010944F400740860B9696D1CB0
:10096000761E0E98884782463028F0D02BE00B99EF
:100970008A4505D1200603D444F08004761E18E091
:10098000504609F00DFA08B30DF11302761EAAF1D4
:10099000300044F40074934506D20BF8010B200696
:1009A00007D5A9F1010003E0200602D409F10100F6
:1009B0008146A00502D50F99681C0860B9696D1CB5
:1009C0000E9888478246002ED1DC53E0002E51DD80
:1009D000BAF1650F02D0BAF1450F4BD1A00549D548
:1009E000B9696D1C24F44074761E0E9888478246BF
:1009F000002E0CDD2B2804D0BAF12D0F07D144F4C2
:100A00008074B9696D1C0E9888478246761EE00591
:100A100001D52D2100E02B2108F8011BCDF82C80F9
:100A200021E00DF12901761E44F4007488450CD2B2
:100A3000AAF1300010F0FF0088F8000002D10B99F5
:100A4000884509D908F1010806E0E00501D52448E8
:100A500001E042F20F708146B9696D1C0E9888471B
:100A600082460F980560002E04DD504609F098F983
:100A70000028D6D1F9690E988847FF208BF800002E
:100A800088F800000020069007904B466A4608A9A7
:100A900006A8FFF777FEA00502D46FF001002AE751
:100AA00014F0240F0AD0E00714D1DDE906123868EB
:100AB000031D3B600068C0E900120BE0DDE90601A0
:100AC00000F039FC0146E00704D13868021D3A60A5
:100AD0000068016028460EE7000014400000F03F67
:100AE000F1D8FFFF0268114413780160184670477F
:100AF000D16004495161044911620021116111461C
:100B000000F01ABAE50A0008110F0008426842B165
:100B1000016811F8013B23B1521EC0E900121846CA
:100B200070470121C160881E704742685AB1C3688E
:100B3000016843B983688B4205D0491E521CC0E945
:100B40000012002070474FF0FF3070472DE9FE4F34
:100B5000804681EA0300C00F0C46009021F000415E
:100B600023F00045B8EB0200A94105D240462146DA
:100B700090461C460B46024623F00040104347D0E7
:100B8000270DC7F30A00C3F30A510290401A0190DF
:100B900040286BDAC3F3130040F4801B00989246A0
:100BA00020B10023D2EB030A63EB0B0B01985946EB
:100BB000C0F140025046FFF705FC06460D46504680
:100BC0005946019A00F092F910EB080061410024A7
:100BD00087EA115284EAE7731A4340D0009A62B35D
:100BE000019A012A4FEA075215DC001B61EB020152
:100BF0004FF0004202EA0752CDE90042001C41F5E5
:100C0000801132462B4600F03CFB03B0BDE8F08F6C
:100C100040462146F9E7001B61EB0201001C41F54B
:100C2000801300185B412018A2F5001747EB030161
:100C300040EAD570B6196D4111E06D084FEA3606ED
:100C400045EAC0754FEA0752001B61EB0201001C28
:100C500041F5801149084FEA3000001951413246F0
:100C60002B4603B0BDE8F04F00F0FCBA009801221B
:100C700040000023D0EB020263EBE07300982146B2
:100C80004FEAE074B8EB000061EB0401E9E783F0A0
:100C900000435BE781F0004158E72DE9FE4F81EA10
:100CA000030404F0004421F0004100944FF0000BD5
:100CB00023F0004350EA01045ED052EA03045BD003
:100CC000C3F30A54C1F30A552C44A4F2F33401943B
:100CD000A0FB0254C1F3130141F48011C3F31303C9
:100CE00043F4801301FB024400FB034E840A970A7D
:100CF00044EA815447EA8357A4FB076802958D0AAA
:100D000005FB07854FEA932C04FB0C542705029D35
:100D10004FEA065847EA1637B5EB08056EEB070CA5
:100D2000870E920E47EA811742EA8312A7FB02015F
:100D3000B6EB0B0164EB00042B0D43EA0C335E1899
:100D400044EB1C50DA465146E7FB0201C5F313049D
:100D50004FEA0B3343EA14534FEA0432019C43EA4F
:100D60000603A4F10C040294009CCDE900B400F049
:100D700088FA03B0BDE8F08F00200146F9E72DE9BD
:100D8000F04D81EA030404F0004B21F000451446C5
:100D90004FF0000A23F0004150EA050220D054EA47
:100DA00001021DD0C5F30A570246C5F31303C1F370
:100DB0001300C1F30A5640F4801543F48013A7EBE7
:100DC0000608101BD64608F2FD3873EB050002D367
:100DD00008F1010801E092185B41B8F1000F03DA55
:100DE00000200146BDE8F08D00204FF4801106463A
:100DF00084460EE0171B73EB050705D3121B63EB4C
:100E0000050306434CEA010C49084FEA30009218EA
:100E10005B4150EA0107EDD152EA030012D082EAA9
:100E2000040083EA0501084305D0101BAB4106D23C
:100E30000122002306E000224FF0004302E06FF0A1
:100E4000010253101AEB06004CEB085110EB0A009C
:100E500041EB0B01BDE8F04D00F004BAC1F30A52BA
:100E6000C1F3130140F2FF3341F480119A4202DAD8
:100E700000200146704740F233439A42A2F23342C7
:100E800002DC5242FFF7ADBAFFF79CBA30B5041E40
:100E900071F1000404DB4FF00044404264EB0101B7
:100EA000141E73F1000405DB1C464FF00043524250
:100EB00063EB0403994208BF904230BD1CB509485A
:100EC0000090094801900546009C06E0E06840F06B
:100ED000010394E8070098471034AC42F6D3FFF7BB
:100EE000DFF9000048A6000868A60008202A06DBF3
:100EF000CB17203A41FA02F043EAE07306E041FAE8
:100F000002F3D040C2F120029140084319467047D5
:100F1000C0B24FF4F05100F02BBA3A2800D230386A
:100F200020F02002412A01D3A2F13700884201D3E8
:100F30004FF0FF30704700002DE9F34F8BB04FF0BA
:100F4000000801F10C000C464FF0010B46460DF174
:100F5000080A01906269012101989047051E2DD071
:100F6000252D2CD0216A8847C0B1626901210198E2
:100F70009047216A88470028F7D1411E626901988D
:100F8000904700E0761CA1690B988847216A884742
:100F90000028F7D1E1690B988847DBE7A1690B9836
:100FA00088470746A84201D1761CD3E7E1690B9830
:100FB00088477F1C02D1B8F1000F6FD046E10027AF
:100FC00062693D463946019890472A2804D16269F2
:100FD0000121019890470125DFF88492626901217F
:100FE00001989047A0F130010A290AD24F45E5DC6B
:100FF00007EB870100EB4107303FDFD445F01005D8
:10100000ECE7E90601D46FF000476C280AD04C28C1
:1010100014D0682815D06A280DD074281CD07A28DE
:101020001AD01DE062690121019890476C2802D016
:1010300045F0040514E045F002050DE045F02005FB
:101040000AE06269012101989047682802D045F0C2
:10105000080505E045F400656269012101989047A3
:10106000C4E9015765283DD019DC58287AD00CDC3A
:10107000452837D004DC252826D0412831D131E05D
:1010800046282FD047282CD12CE05B2877D0612828
:1010900028D063287CD0642823D15AE0D0E06F2880
:1010A00048D008DC66281DD067281BD0692821D0CD
:1010B0006E2816D127E0702845D0732868D075288F
:1010C00047D078280DD14DE0A1690B988847054697
:1010D00025283FF469AFE1690B9888476D1C3FF400
:1010E0006AAFB3E023466A466FF001000B99FFF741
:1010F000DDFB9EE045F040006060A80723464FF00E
:10110000000236D43EE0E8077FF447AF2068011DB7
:1011100021600068290501D506701BE7290701D564
:10112000068017E7A90703D5F117C0E9006111E7A9
:1011300006600FE745F040006060A80723464FF0C7
:10114000080216D41EE040F60E0125EA0100606098
:1011500016E045F040006060A80723464FF00A0201
:1011600007D40FE045F040006060A80708D523468B
:1011700010226FF001000B99FFF743F959E007E0E7
:10118000234610226FF001000B99FFF7E5F950E0BC
:101190004FF000094F464B46632802D05B2806D02B
:1011A00040E0E80601D40120A06001273AE062692E
:1011B0000121019890475E2805D14FF0010962692D
:1011C000494601989047216939B900210A4653469A
:1011D00043F82120491C0829FADBB0B3216969B919
:1011E000C11700EBD16253110AEB830122F01F02F9
:1011F000821A01200B68904003430B606269012151
:10120000019890475D28E8D1B9F1000F09D000207E
:10121000514651F82020D24341F82020401C082894
:10122000F7DB02AB224600976FF001000B99FFF746
:1012300039FA00280CDA401C08D1BBF1000F05D0A8
:101240004FF0FF300DB0BDE8F08FFFE74046F9E703
:10125000E90701D108F1010806444FF0000B79E6D7
:10126000CCCCCC0C10B5141E73F1000408DA401C71
:1012700041F1000192185B411A4301D120F00100B5
:1012800010BD2DE9F04D92469B4611B1B1FA81F2A5
:1012900002E0B0FA80F220329046FFF793F804465D
:1012A0000F4640EA0A0041EA0B0153465A460843FA
:1012B00013D0114653EA010019D0C8F1400250463C
:1012C000FFF78FF805460E46504659464246FFF74F
:1012D00079F8084305D0012004E020463946BDE8EE
:1012E000F08D0020054346EAE0762C4337430A9808
:1012F0006305E40AA0EB08000022FD0A44EA475413
:101300000A3002D500200146E9E7010510196941BC
:10131000DDE9084500196941BDE8F04DA2E70EB5C9
:1013200040F2334202920022CDE900221346FFF739
:10133000A8FF03B000BD01F0004330B421F000412C
:1013400050EA010206D00A0DA2F56072C1F3130142
:10135000002A02DC30BC00207047440F44EAC1047C
:10136000C100E01830BC00EBC25000F015B800001E
:101370007F2801D9002208E0064A02EB5002C0078C
:10138000127800D1120902F00F02012090400840AB
:1013900070470000E8A400080029A8BF7047401C5F
:1013A000490008BF20F00100704710B4B0FA80FC7B
:1013B00000FA0CF050EA010404BF10BC704749B1B8
:1013C000CCF1200421FA04F411FA0CF118BF012128
:1013D00021430843A3EB0C01CB1D4FEA00614FEA08
:1013E000102042BF002010BC704700EBC3501044D7
:1013F0000029A4BF10BC7047401C490008BF20F062
:10140000010010BC70470000FFE7FEE7000000008D
:10141000704700000000000081B0EFF3108072B64A
:101420000090FFE7FEE7000044F60C01C5F602015C
:10143000086840F002000860FFE744F60400C5F6C3
:10144000020000688004002801D4FFE7F5E7704738
:1014500080B58AB0089001F0FBF90490089828B98B
:10146000FFE701208DF8270000F0AABC089890F84B
:10147000350002280ED0FFE7089980204865FFE775
:101480000899002081F83400FFE701208DF827003B
:1014900000F096BC0898016801201022C4F20202F4
:1014A0009142039000F0A380FFE7089801680120B3
:1014B0002822C4F202029142039000F09880FFE7D4
:1014C0000898016801204022C4F202029142039070
:1014D00000F08D80FFE70898016801205822C4F2CF
:1014E00002029142039000F08280FFE708980168B1
:1014F00001207022C4F202029142039077D0FFE7EC
:101500000898016801208822C4F2020291420390E7
:101510006DD0FFE7089801680120A022C4F2020202
:101520009142039063D0FFE7089801680120B82238
:10153000C4F202029142039059D0FFE70898016873
:10154000012040F21042C4F20202914203904ED0B8
:10155000FFE708980168012040F22842C4F2020225
:101560009142039043D0FFE708980168012040F2C0
:101570004042C4F202029142039038D0FFE708983B
:101580000168012040F25842C4F2020291420390E5
:101590002DD0FFE708980168012040F27042C4F2A4
:1015A00002029142039022D0FFE7089801680120CF
:1015B00040F28842C4F202029142039017D0FFE742
:1015C00008980168012040F2A042C4F20202914250
:1015D00003900CD0FFE7089800684FF64831CBF62F
:1015E000FD710844B0FA80F040090390FFE70398CA
:1015F000C00780B1FFE708980168086820F01E0066
:10160000086008980168486920F0800048610898DF
:101610000068059009E008980168086820F00E004D
:101620000860089800680590FFE7089801680120A5
:101630001022C4F202029142029000F00381FFE7FF
:101640000898016801202822C4F202029142029007
:1016500000F0F880FFE70898016801204022C4F2FA
:1016600002029142029000F0ED80FFE708980168C5
:1016700001205822C4F202029142029000F0E2805E
:10168000FFE70898016801207022C4F2020291422B
:10169000029000F0D780FFE70898016801208822B7
:1016A000C4F202029142029000F0CC80FFE7089859
:1016B00001680120A022C4F202029142029000F0CF
:1016C000C180FFE7089801680120B822C4F2020235
:1016D0009142029000F0B680FFE70898016801206F
:1016E00040F21042C4F202029142029000F0AA803D
:1016F000FFE708980168012040F22842C4F2020284
:101700009142029000F09E80FFE708980168012056
:1017100040F24042C4F202029142029000F09280F4
:10172000FFE708980168012040F25842C4F2020223
:101730009142029000F08680FFE70898016801203E
:1017400040F27042C4F20202914202907AD0FFE766
:1017500008980168012040F28842C4F202029142D6
:1017600002906FD0FFE708980168012040F2A04284
:10177000C4F202029142029064D0FFE70898016827
:10178000012040F2B842C4F202029142029059D0C4
:10179000FFE708980168012045F20842C5F60202F9
:1017A000914202904ED0FFE708980168012045F26F
:1017B0001C42C5F602029142029043D0FFE708980E
:1017C0000168012045F23042C5F6020291420290C2
:1017D00038D0FFE708980168012045F24442C5F679
:1017E0000202914202902DD0FFE708980168012083
:1017F00045F25842C5F602029142029022D0FFE71C
:1018000008980168012045F26C42C5F60202914237
:10181000029017D0FFE708980168012045F2804246
:10182000C5F60202914202900CD0FFE708980068CA
:101830004AF66C31CAF2FD710844B0FA80F04009F2
:101840000290FFE70298C00738B1FFE70898016EE1
:10185000086820F480700860FFE70898006810218D
:10186000C4F20201884200F08180FFE70898006816
:101870002821C4F20201884278D0FFE70898006866
:101880004021C4F20201884270D0FFE70898006846
:101890005821C4F20201884268D0FFE70898006826
:1018A0007021C4F20201884260D0FFE70898006806
:1018B0008821C4F20201884258D0FFE708980068E6
:1018C000A021C4F20201884250D0FFE708980068C6
:1018D000B821C4F20201884248D0FFE708980068A6
:1018E00040F21041C4F2020188423FD0FFE708985D
:1018F000006840F22841C4F20201884236D0FFE776
:101900000898006840F24041C4F2020188422DD09C
:10191000FFE70898006840F25841C4F2020188428B
:1019200024D0FFE70898006840F27041C4F2020139
:1019300088421BD0FFE70898006840F28841C4F253
:101940000201884212D0FFE70898006840F2A041E7
:10195000C4F20201884209D0FFE70898006840F20B
:10196000B841C4F20201884207D1FFE70898016834
:10197000086820F00100086006E00898016808681F
:1019800020F001000860FFE7FFE705980068C00746
:10199000C8B1FFE700F05CFF0499401A062811D394
:1019A000FFE70899202048650899032081F8350051
:1019B000FFE70899002081F83400FFE701208DF847
:1019C0002700FDE1E1E70898016801201022C4F238
:1019D00002029142019000F0A380FFE7089801689D
:1019E00001202822C4F202029142019000F0988066
:1019F000FFE70898016801204022C4F202029142E8
:101A0000019000F08D80FFE70898016801205822BE
:101A1000C4F202029142019000F08280FFE7089830
:101A2000016801207022C4F202029142019077D035
:101A3000FFE70898016801208822C4F2020291425F
:101A400001906DD0FFE7089801680120A022C4F240
:101A500002029142019063D0FFE7089801680120DB
:101A6000B822C4F202029142019059D0FFE70898CF
:101A70000168012040F21042C4F20202914201903A
:101A80004ED0FFE708980168012040F22842C4F2D6
:101A900002029142019043D0FFE7089801680120BB
:101AA00040F24042C4F202029142019038D0FFE776
:101AB00008980168012040F25842C4F202029142A3
:101AC00001902DD0FFE708980168012040F2704294
:101AD000C4F202029142019022D0FFE70898016807
:101AE000012040F28842C4F202029142019017D0D4
:101AF000FFE708980168012040F2A042C4F2020208
:101B0000914201900CD0FFE7089800684FF64831E9
:101B1000CBF6FD710844B0FA80F040090190FFE770
:101B20000198C00760B1FFE70898806D079008989A
:101B3000C06D00F01F013F208840079988600BE0CE
:101B40000898806D06900898C06D00F01F01012074
:101B5000884006994860FFE7089801680120102234
:101B6000C4F202029142009000F00381FFE708985E
:101B7000016801202822C4F202029142009000F084
:101B8000F880FFE70898016801204022C4F20202B1
:101B90009142009000F0ED80FFE708980168012075
:101BA0005822C4F202029142009000F0E280FFE766
:101BB0000898016801207022C4F20202914200904C
:101BC00000F0D780FFE70898016801208822C4F25E
:101BD00002029142009000F0CC80FFE70898016873
:101BE0000120A022C4F202029142009000F0C180C4
:101BF000FFE7089801680120B822C4F2020291426E
:101C0000009000F0B680FFE708980168012040F2DC
:101C10001042C4F202029142009000F0AA80FFE755
:101C200008980168012040F22842C4F20202914261
:101C3000009000F09E80FFE708980168012040F2C4
:101C40004042C4F202029142009000F09280FFE70D
:101C500008980168012040F25842C4F20202914201
:101C6000009000F08680FFE708980168012040F2AC
:101C70007042C4F20202914200907AD0FFE70898C5
:101C80000168012040F28842C4F2020291420090B1
:101C90006FD0FFE708980168012040F2A042C4F22B
:101CA00002029142009064D0FFE708980168012089
:101CB00040F2B842C4F202029142009059D0FFE7CC
:101CC00008980168012045F20842C5F602029142D7
:101CD00000904ED0FFE708980168012045F21C42B1
:101CE000C5F602029142009043D0FFE708980168D0
:101CF000012045F23042C5F602029142009038D0F0
:101D0000FFE708980168012045F24442C5F6020247
:101D1000914200902DD0FFE708980168012045F21C
:101D20005842C5F602029142009022D0FFE708987F
:101D30000168012045F26C42C5F602029142009012
:101D400017D0FFE708980168012045F28042C5F6E8
:101D50000202914200900CD0FFE7089800684AF612
:101D60006C31CAF2FD710844B0FA80F0400900906D
:101D7000FFE70098C007A0B1FFE70898416E806EAA
:101D800048600898C06E58B1FFE70898C16E0868AF
:101D900020F4807008600898016F406F4860FFE78A
:101DA000FFE70899012081F83500FFE70899002036
:101DB00081F83400FFE7FFE700208DF82700FFE7F8
:101DC0009DF827000AB080BD80B586B004900498C5
:101DD00020B9FFE701208DF8170046E3049890F83A
:101DE0003500022807D0FFE70499802048650120CC
:101DF0008DF8170039E30498016801201022C4F21D
:101E000002029142029000F0A380FFE7049801686B
:101E100001202822C4F202029142029000F0988030
:101E2000FFE70498016801204022C4F202029142B7
:101E3000029000F08D80FFE704980168012058228D
:101E4000C4F202029142029000F08280FFE70498FF
:101E5000016801207022C4F202029142029077D000
:101E6000FFE70498016801208822C4F2020291422F
:101E700002906DD0FFE7049801680120A022C4F20F
:101E800002029142029063D0FFE7049801680120AA
:101E9000B822C4F202029142029059D0FFE704989E
:101EA0000168012040F21042C4F202029142029005
:101EB0004ED0FFE704980168012040F22842C4F2A6
:101EC00002029142029043D0FFE70498016801208A
:101ED00040F24042C4F202029142029038D0FFE741
:101EE00004980168012040F25842C4F20202914273
:101EF00002902DD0FFE704980168012040F2704263
:101F0000C4F202029142029022D0FFE704980168D5
:101F1000012040F28842C4F202029142029017D09E
:101F2000FFE704980168012040F2A042C4F20202D7
:101F3000914202900CD0FFE7049800684FF64831B8
:101F4000CBF6FD710844B0FA80F040090290FFE73B
:101F50000298C007002800F09D80FFE70499042044
:101F600081F83500049800681021C4F2020188420B
:101F700000F08180FFE7049800682821C4F2020184
:101F8000884278D0FFE7049800684021C4F202013B
:101F9000884270D0FFE7049800685821C4F202011B
:101FA000884268D0FFE7049800687021C4F20201FB
:101FB000884260D0FFE7049800688821C4F20201DB
:101FC000884258D0FFE704980068A021C4F20201BB
:101FD000884250D0FFE704980068B821C4F202019B
:101FE000884248D0FFE70498006840F21041C4F2EC
:101FF000020188423FD0FFE70498006840F2284180
:10200000C4F20201884236D0FFE70498006840F22B
:102010004041C4F2020188422DD0FFE704980068D5
:1020200040F25841C4F20201884224D0FFE70498EC
:10203000006840F27041C4F2020188421BD0FFE701
:102040000498006840F28841C4F20201884212D02C
:10205000FFE70498006840F2A041C4F20201884200
:1020600009D0FFE70498006840F2B841C4F20201C9
:10207000884207D1FFE704980168086820F0010052
:10208000086006E004980168086820F00100086014
:10209000FFE7E5E104980168086820F00E00086099
:1020A000049800681021C4F20201884200F0818087
:1020B000FFE7049800682821C4F20201884278D022
:1020C000FFE7049800684021C4F20201884270D002
:1020D000FFE7049800685821C4F20201884268D0E2
:1020E000FFE7049800687021C4F20201884260D0C2
:1020F000FFE7049800688821C4F20201884258D0A2
:10210000FFE704980068A021C4F20201884250D081
:10211000FFE704980068B821C4F20201884248D061
:10212000FFE70498006840F21041C4F202018842BF
:102130003FD0FFE70498006840F22841C4F2020152
:10214000884236D0FFE70498006840F24041C4F26C
:10215000020188422DD0FFE70498006840F2584100
:10216000C4F20201884224D0FFE70498006840F2DC
:102170007041C4F2020188421BD0FFE70498006856
:1021800040F28841C4F20201884212D0FFE704986D
:10219000006840F2A041C4F20201884209D0FFE782
:1021A0000498006840F2B841C4F20201884207D1A5
:1021B000FFE704980168086820F00100086006E065
:1021C00004980168086820F001000860FFE704989F
:1021D000016801201022C4F202029142019000F035
:1021E0000381FFE70498016801202822C4F202025B
:1021F0009142019000F0F880FFE704980168012007
:102200004022C4F202029142019000F0ED80FFE70B
:102210000498016801205822C4F202029142019000
:1022200000F0E280FFE70498016801207022C4F208
:1022300002029142019000F0D780FFE70498016804
:1022400001208822C4F202029142019000F0CC8069
:10225000FFE7049801680120A022C4F20202914223
:10226000019000F0C180FFE7049801680120B822C6
:10227000C4F202029142019000F0B680FFE7049898
:102280000168012040F21042C4F202029142019022
:1022900000F0AA80FFE704980168012040F228427C
:1022A000C4F202029142019000F09E80FFE7049880
:1022B0000168012040F24042C4F2020291420190C2
:1022C00000F09280FFE704980168012040F2584234
:1022D000C4F202029142019000F08680FFE7049868
:1022E0000168012040F27042C4F202029142019062
:1022F0007AD0FFE704980168012040F28842C4F2D6
:102300000202914201906FD0FFE70498016801201A
:1023100040F2A042C4F202029142019064D0FFE771
:1023200004980168012040F2B842C4F202029142CE
:10233000019059D0FFE704980168012045F2084256
:10234000C5F60202914201904ED0FFE70498016861
:10235000012045F21C42C5F602029142019043D091
:10236000FFE704980168012045F23042C5F60202F9
:102370009142019038D0FFE704980168012045F2AE
:102380004442C5F60202914201902DD0FFE7049825
:102390000168012045F25842C5F6020291420190BF
:1023A00022D0FFE704980168012045F26C42C5F68F
:1023B00002029142019017D0FFE7049801680120C2
:1023C00045F28042C5F60202914201900CD0FFE72F
:1023D000049800684AF66C31CAF2FD710844B0FAFC
:1023E00080F040090190FFE70198C00728B3FFE79C
:1023F0000498016E086820F4807008600498806D6D
:1024000003900498C06D00F01F01012088400399DB
:1024100048600498416E806E48600498C06E58B160
:10242000FFE70498C16E086820F480700860049883
:10243000016F406F4860FFE7FFE70499012081F8D2
:102440003500FFE70499002081F83400FFE7049885
:10245000006D20B1FFE70498016D8847FFE7FFE7B3
:10246000FFE700208DF81700FFE79DF8170006B082
:1024700080BD00000000000090B00F900E91002081
:102480000D908020C5F600000A90FFE70E980068C6
:102490000D99C840002800F0CF81FFE70E98006832
:1024A0000D9A0121914008400C900C98002800F0F2
:1024B000BF81FFE70E98406800F00300012807D0B5
:1024C000FFE70E98406800F0030002282FD1FFE7D5
:1024D0000F9880680B900D984100032000FA01F1DD
:1024E0000B9888430B900E98C0680D99490000FA2C
:1024F00001F10B9808430B900B980F9988600F9887
:1025000040680B900D99012000FA01F10B98884367
:102510000B900E984068C0F300100D9900FA01F17D
:102520000B9808430B900B980F994860FFE70E98A3
:10253000406800F00300032818D0FFE70F98C06838
:102540000B900D984100032000FA01F10B9888438D
:102550000B900E9880680D99490000FA01F10B98D4
:1025600008430B900B980F99C860FFE70E984068DE
:1025700000F00300022826D1FFE70F980D996FF0B5
:10258000030202EA51010844006A0B900D9800F022
:10259000070081000F2000FA01F10B9888430B908F
:1025A0000E9800690D9901F00701890000FA01F108
:1025B0000B9808430B900B980F990D9B02EA53025E
:1025C00011440862FFE70F9800680B900D984100D6
:1025D000032000FA01F10B9888430B900E98406895
:1025E00000F003000D99490000FA01F10B9808432F
:1025F0000B900B980F9908600E988079800700283F
:1026000000F01581FFE7FFE744F2F440C5F6020051
:10261000016841F002010160006800F002000990C9
:102620000998FFE70D9820F0030040F20841C5F635
:10263000000140580B900D9800F0030081000F201E
:1026400000FA01F10B9888430B900F980021C5F612
:102650000201884203D1FFE7002008907AE00F983A
:1026600040F20041C5F60201884203D1FFE7012094
:1026700007906CE00F9840F60001C5F60201884211
:1026800003D1FFE7022006905EE00F9840F600417C
:10269000C5F60201884203D1FFE70320059050E010
:1026A0000F9841F20001C5F60201884203D1FFE70D
:1026B0000420049042E00F9841F20041C5F6020167
:1026C000884203D1FFE70520039034E00F9841F6DC
:1026D0000001C5F60201884203D1FFE706200290FF
:1026E00026E00F9841F60041C5F60201884203D169
:1026F000FFE70720019018E00F9842F20001C5F6AD
:102700000201884203D1FFE7082000900AE00F99F8
:1027100042F20042C5F602020A20914208BF092097
:102720000090FFE700980190FFE701980290FFE713
:1027300002980390FFE703980490FFE70498059040
:10274000FFE705980690FFE706980790FFE70798D0
:102750000890FFE708980D9901F00301890000FA3D
:1027600001F10B9808430B900B980D9921F0030190
:1027700040F20842C5F6000288504FF0B0400068B1
:102780000B900C990B9888430B900E988079C0069B
:10279000002805D5FFE70C990B9808430B90FFE73D
:1027A0000B984FF0B04108600420C5F600000068A7
:1027B0000B900C990B9888430B900E9880798006AB
:1027C000002805D5FFE70C990B9808430B90FFE70D
:1027D0000B980421C5F6000108600A9840680B9028
:1027E0000C990B9888430B900E98807980070028ED
:1027F00005D5FFE70C990B9808430B90FFE70B9862
:102800000A9948600A9800680B900C990B988843C5
:102810000B900E988079C00728B1FFE70C990B98B0
:1028200008430B90FFE70B980A990860FFE7FFE762
:102830000D9801300D9029E610B07047000000009F
:1028400041F20000C5F600400068000C704700002F
:1028500040F23450C2F200400068704700000000AF
:1028600040F21200C2F20040027840F23451C2F24B
:102870000041086810440860704700000000000034
:1028800080B582B0032000F0B7F801F0ADFE44F24D
:102890001842C5F602021168C1F303234AF2285117
:1028A000C0F60001CB5C03F01F03D84000900098F5
:1028B000126802F00F02895C01F01F01C84040F26B
:1028C0000801C2F200410860009840F20401C2F21F
:1028D000004108600F2000F013F820B1FFE701204D
:1028E0008DF8070005E000F04FF800208DF8070094
:1028F000FFE79DF8070002B080BD00000000000067
:1029000080B582B0009040F21200C2F20040007820
:1029100020B9FFE701208DF8070030E040F2040005
:10292000C2F20040006840F21201C2F200410A788F
:102930004FF47A71B1FBF2F1B0FBF1F002F080FDDF
:1029400020B1FFE701208DF8070018E000980F285C
:102950000DD8FFE700994FF0FF30002200F034F867
:10296000009840F21401C2F20041086003E0012027
:102970008DF8070003E000208DF80700FFE79DF8C1
:10298000070002B080BD000081B0FFE744F2F440D0
:10299000C5F60200016841F002010160006800F024
:1029A000020000900098FFE701B0704700000000AF
:1029B00080B582B0ADF80600BDF9060006F010FD46
:1029C00002B080BD0000000080B586B0ADF81600F2
:1029D0000491039206F01CFD0290BDF916000190CF
:1029E00002980499039A04F023FB0146019806F02B
:1029F00017FD06B080BD000080B582B0019001983F
:102A000006F032FD02B080BD80B584B0029044F67D
:102A10000C00C5F60200006800F004010020B0EBD5
:102A2000910F13D1FFE744F60C00C5F602000068D1
:102A300000F007000299884204D0FFE701208DF8DA
:102A40000F002EE000208DF80F002AE044F60C0164
:102A5000C5F60201086820F00700029A10430860DA
:102A6000FFF7F6FE0190FFE744F60400C5F602000A
:102A7000006800F400510020B0EB513F0DD1FFE79A
:102A8000FFF7E6FE0199401AB0F57A7F04D9FFE717
:102A900001208DF80F0004E0E6E700208DF80F001C
:102AA000FFE79DF80F0004B080BD000000000000AB
:102AB00080B501F045FD44F22041C5F602010968E8
:102AC000C1F302124AF22851C0F60001895C01F0FC
:102AD0001F01C84080BD000088B0079044F2284024
:102AE000C5F60200016801F0030106910068C0F319
:102AF0000530059044F22C40C5F602000068C0F392
:102B000000100490049844F23C41C5F602010968A3
:102B100089B2C908484300EE100AB8EE400A8DEDAC
:102B2000020A0598002800F01181FFE7069800903E
:102B300048B1FFE70098012865D0FFE70098022818
:102B400000F08380A3E044F20040C5F60200006874
:102B500000F020010020B0EB511F31D0FFE744F21C
:102B60000040C5F602000068C0F3C10149F2000050
:102B7000C0F2D030C84003909DED030AB8EE400A81
:102B80009DED051AB8EE411A80EE010A44F2384074
:102B9000C5F6020000686FF35F2001EE100AB8EE80
:102BA000411A9DED022A9FED6F3A02EE031AB7EE2D
:102BB000002A31EE021A20EE010A8DED010A21E011
:102BC0009DED050AB8EE401A9FED680A80EE010AF5
:102BD00044F23840C5F6020000686FF35F2001EE52
:102BE000100AB8EE411A9DED022A9FED5E3A02EE00
:102BF000031AB7EE002A31EE021A20EE010A8DED1B
:102C0000010AFFE765E09DED050AB8EE401A9FED69
:102C1000560A80EE010A44F23840C5F60200006808
:102C20006FF35F2001EE100AB8EE411A9DED022A03
:102C30009FED4C3A02EE031AB7EE002A31EE021A6B
:102C400020EE010A8DED010A43E09DED050AB8EE84
:102C5000401A9FED430A80EE010A44F23840C5F65F
:102C6000020000686FF35F2001EE100AB8EE411A0F
:102C70009DED022A9FED3B3A02EE031AB7EE002AC1
:102C800031EE021A20EE010A8DED010A21E09DEDE0
:102C9000050AB8EE401A9FED340A80EE010A44F2AC
:102CA0003840C5F6020000686FF35F2001EE100A9D
:102CB000B8EE411A9DED022A9FED2A3A02EE031A60
:102CC000B7EE002A31EE021A20EE010A8DED010A5C
:102CD000FFE79DED010A44F23840C5F602000168A5
:102CE00089B2490A01EE101AB8EE411AB7EE002A6D
:102CF00031EE021A80EE010A0799BCEEC00A81ED9E
:102D0000000A9DED010A0168C1F3064101EE101AA7
:102D1000B8EE411A31EE021A80EE010A0799BCEEB4
:102D2000C00A81ED010A9DED010A0068C0F306604A
:102D300001EE100AB8EE411A31EE021A80EE010AD5
:102D40000798BCEEC00A80ED020A07E00799002050
:102D500008600799486007998860FFE708B07047E6
:102D600020BCBE4B000000390024744A0024744C7F
:102D700088B0079044F22840C5F60200016801F0CF
:102D8000030106910068C0F30550059044F22C4001
:102D9000C5F602000068C0F300200490049844F2D5
:102DA0004441C5F60201096889B2C908484300EEEA
:102DB000100AB8EE400A8DED020A0598002800F0CE
:102DC0001181FFE70698009048B1FFE700980128BD
:102DD00065D0FFE70098022800F08380A3E044F26A
:102DE0000040C5F60200006800F020010020B0EBB2
:102DF000511F31D0FFE744F20040C5F602000068E1
:102E0000C0F3C10149F20000C0F2D030C8400390C5
:102E10009DED030AB8EE400A9DED051AB8EE411A81
:102E200080EE010A44F24040C5F6020000686FF3EC
:102E30005F2001EE100AB8EE411A9DED022A9FEDC7
:102E40006F3A02EE031AB7EE002A31EE021A20EEB4
:102E5000010A8DED010A21E09DED050AB8EE401A48
:102E60009FED680A80EE010A44F24040C5F6020078
:102E700000686FF35F2001EE100AB8EE411A9DED75
:102E8000022A9FED5E3A02EE031AB7EE002A31EEF7
:102E9000021A20EE010A8DED010AFFE765E09DEDC3
:102EA000050AB8EE401A9FED560A80EE010A44F278
:102EB0004040C5F6020000686FF35F2001EE100A83
:102EC000B8EE411A9DED022A9FED4C3A02EE031A2C
:102ED000B7EE002A31EE021A20EE010A8DED010A4A
:102EE00043E09DED050AB8EE401A9FED430A80EEDF
:102EF000010A44F24040C5F6020000686FF35F200B
:102F000001EE100AB8EE411A9DED022A9FED3B3A00
:102F100002EE031AB7EE002A31EE021A20EE010A81
:102F20008DED010A21E09DED050AB8EE401A9FEDF6
:102F3000340A80EE010A44F24040C5F602000068FF
:102F40006FF35F2001EE100AB8EE411A9DED022AE0
:102F50009FED2A3A02EE031AB7EE002A31EE021A6A
:102F600020EE010A8DED010AFFE79DED010A44F212
:102F70004040C5F60200016889B2490A01EE101A04
:102F8000B8EE411AB7EE002A31EE021A80EE010ABD
:102F90000799BCEEC00A81ED000A9DED010A0168A7
:102FA000C1F3064101EE101AB8EE411A31EE021AD1
:102FB00080EE010A0799BCEEC00A81ED010A9DED81
:102FC000010A0068C0F3066001EE100AB8EE411A6B
:102FD00031EE021A80EE010A0798BCEEC00A80EDBD
:102FE000020A07E0079900200860079948600799DE
:102FF0008860FFE708B0704720BCBE4B0000003976
:103000000024744A0024744C80B59AB018900020B3
:103010008DF857008DF856001898C07800070028E2
:1030200048D5FFE71898806E149078B1FFE71498A0
:10303000B0F5801F13D0FFE71498B0F5001F16D02D
:10304000FFE71498B0F5401F19D019E044F22C4165
:10305000C5F60201086840F40030086014E01898D2
:103060000830022104F020F88DF857000CE0189881
:103070002830022104F000F98DF8570004E003E045
:1030800001208DF85700FFE79DF8570060B9FFE772
:1030900044F25041C5F60201086820F44010189A25
:1030A000926E1043086004E09DF857008DF85600BA
:1030B000FFE7FFE718984078C007002840D0FFE7F7
:1030C0001898806D1390042820D81399DFE801F038
:1030D000030C141C1D0044F22C41C5F602010868C3
:1030E00040F40030086015E018980830002103F023
:1030F000DBFF8DF857000DE018982830002104F010
:10310000BBF88DF8570005E004E003E001208DF8DE
:103110005700FFE79DF8570060B9FFE744F25041C0
:10312000C5F60201086820F00700189A926D104356
:10313000086004E09DF857008DF85600FFE7FFE7B0
:1031400018984078800700284BD5FFE71898C06D85
:10315000129088B1FFE71298402816D0FFE7129826
:1031600080281AD0FFE71298C0281ED0FFE71298D7
:10317000B0F5807F1AD01AE044F22C41C5F6020166
:10318000086840F40030086015E018980830002105
:1031900003F08AFF8DF857000DE0189828300021C1
:1031A00004F06AF88DF8570005E004E003E0012020
:1031B0008DF85700FFE79DF8570060B9FFE744F22C
:1031C0005041C5F60201086820F4E070189AD26DEB
:1031D0001043086004E09DF857008DF85600FFE7A3
:1031E000FFE7189840784007002850D5FFE7189867
:1031F000D0F8A8001190A0B1FFE71198B0F5001F1A
:1032000018D0FFE71198B0F5800F1BD0FFE7119899
:10321000B0F5C00F1ED0FFE71198B0F5000F1AD01F
:103220001AE044F22C41C5F60201086840F400306F
:10323000086015E018980830002103F035FF8DF87C
:1032400057000DE018982830002104F015F88DF88B
:10325000570005E004E003E001208DF85700FFE788
:103260009DF8570068B9FFE744F25841C5F60201DE
:10327000086820F46000189AD2F8A820104308606B
:1032800004E09DF857008DF85600FFE7FFE7189817
:1032900040780007002850D5FFE71898D0F8AC0018
:1032A0001090A0B1FFE71098B0F1807F18D0FFE731
:1032B0001098B0F1007F1BD0FFE71098B0F1407F6D
:1032C0001ED0FFE71098B0F1806F1AD01AE044F2D8
:1032D0002C41C5F60201086840F40030086015E092
:1032E00018980830002103F0DFFE8DF857000DE03C
:1032F00018982830002103F0BFFF8DF8570005E033
:1033000004E003E001208DF85700FFE79DF8570027
:1033100068B9FFE744F25841C5F60201086820F099
:10332000E060189AD2F8AC201043086004E09DF8E1
:1033300057008DF85600FFE7FFE71898C078800720
:1033400000283ED5FFE71898C06C0F90F0B1FFE75A
:103350000F98102808D0FFE70F9820280DD0FFE71E
:103360000F98302811D012E044F22C41C5F602012A
:10337000086840F4003008600DE018980830022119
:1033800003F092FE8DF8570005E004E003E0012011
:103390008DF85700FFE79DF8570060B9FFE744F24A
:1033A0004C41C5F60201086820F03000189AD26C32
:1033B0001043086004E09DF857008DF85600FFE7C1
:1033C000FFE718984078C00600284ED5FFE7189808
:1033D000006E0E90A0B1FFE70E98B0F5805F18D098
:1033E000FFE70E98B0F5005F1BD0FFE70E98B0F531
:1033F000405F1ED0FFE70E98B0F5804F1AD01AE05C
:1034000044F22C41C5F60201086840F4003008601F
:1034100015E018980830002103F046FE8DF857009B
:103420000DE018982830002103F026FF8DF8570092
:1034300005E004E003E001208DF85700FFE79DF868
:10344000570060B9FFE744F25041C5F60201086831
:1034500020F4E040189A126E1043086004E09DF8D2
:1034600057008DF85600FFE7FFE718984078800670
:1034700000284CD5FFE71898406E0D90C8B1FFE7C3
:103480000D98B0F5803F15D0FFE70D98B0F5003FDF
:1034900018D0FFE70D98B0F5403F1BD0FFE70D981F
:1034A000B0F5802F17D0FFE70D98B0F5A02F13D0FF
:1034B00013E016E018980830012103F0F5FD8DF8AF
:1034C00057000EE018982830012103F0D5FE8DF842
:1034D000570006E005E004E003E001208DF8570006
:1034E000FFE79DF8570060B9FFE744F25041C5F689
:1034F0000201086820F4E020189A526E1043086018
:1035000004E09DF857008DF85600FFE7FFE7189894
:103510004078400600284ED5FFE71898D0F8B00054
:103520000C90C8B1FFE70C98B0F1805F15D0FFE7B1
:103530000C98B0F1005F18D0FFE70C98B0F1405F35
:103540001BD0FFE70C98B0F1804F17D0FFE70C9825
:10355000B0F1A04F13D013E016E018980830012105
:1035600003F0A2FD8DF857000EE0189828300121D5
:1035700003F082FE8DF8570006E005E004E003E06A
:1035800001208DF85700FFE79DF8570068B9FFE765
:1035900044F25841C5F60201086820F0E040189A4C
:1035A000D2F8B0201043086004E09DF857008DF871
:1035B0005600FFE7FFE718984078000600283BD543
:1035C000FFE71898006F0B90D8B1FFE70B98B0F1A8
:1035D000805F05D0FFE70B98B0F1005F09D011E0E4
:1035E00044F22C41C5F60201086840F4003008603E
:1035F0000CE018980830012103F056FD8DF85700B3
:1036000004E003E001208DF85700FFE79DF8570024
:1036100060B9FFE744F25041C5F60201086820F0A6
:103620004050189A126F1043086004E09DF857004C
:103630008DF85600FFE7FFE71898C078C00700280C
:1036400037D0FFE71898806C0A90032817D80A999A
:10365000DFE801F014020B1344F22C41C5F602011D
:10366000086840F4003008600DE018980830022126
:1036700003F01AFD8DF8570005E004E003E0012097
:103680008DF85700FFE79DF8570060B9FFE744F257
:103690004C41C5F60201086820F00300189A926CAC
:1036A0001043086004E09DF857008DF85600FFE7CE
:1036B000FFE7189880784006002840F1B480FFE7C3
:1036C00044F60001C5F60201086840F48070086005
:1036D000FFF7BEF81690FFE744F60000C5F60200BB
:1036E0000068C00500280CD4FFE7FFF7B1F8169971
:1036F000401A652804D3FFE703208DF8570000E047
:10370000EAE79DF85700002840F08780FFE744F281
:103710007040C5F60200006800F440701899D1F8B6
:10372000B41001F44071884213D0FFE744F27041B5
:10373000C5F60201086820F440701790086840F44C
:1037400080300860086820F48030086017980860AE
:10375000FFE71898D0F8B400B0F5807F1FD1FFE7DD
:10376000FFF776F81690FFE744F27040C5F60200C6
:10377000006800F002010020B0EB510F0ED1FFE70E
:10378000FFF766F81699401A41F28931884204D34E
:10379000FFE703208DF8570000E0E5E7FFE79DF81D
:1037A0005700A0BBFFE7FFE71898D0F8B40000F47B
:1037B0004070B0F5407F13D1FFE744F21041C5F6E9
:1037C0000201086820F47C50189AD2F8B4204FF611
:1037D000F043C0F6FF731A4040EA1210086008E098
:1037E00044F21041C5F60201086820F47C500860DC
:1037F000FFE71898D0F8B4206FF31F3244F27041FD
:10380000C5F60201086810430860FFE704E09DF870
:1038100057008DF85600FFE704E09DF857008DF83B
:103820005600FFE7FFE718980068C007002800F07F
:103830004C80FFE71898C06F099028282BD8099969
:10384000DFE801F0152929292929292916292929FB
:10385000292929291E2929292929292926292929E6
:10386000292929292729292929292929280016E050
:1038700018980830012103F017FC8DF857000EE06E
:1038800018982830012103F0F7FC8DF8570006E066
:1038900005E004E003E001208DF85700FFE79DF804
:1038A000570060B9FFE744F25441C5F602010868C9
:1038B00020F03800189AD26F1043086004E09DF899
:1038C00057008DF85600FFE7FFE71898007880074B
:1038D000002839D5FFE71898806F0890052819D877
:1038E0000899DFE801F003040C14151616E0189887
:1038F0000830012103F0D8FB8DF857000EE018982E
:103900002830012103F0B8FC8DF8570006E005E0EF
:1039100004E003E001208DF85700FFE79DF8570011
:1039200060B9FFE744F25441C5F60201086820F08F
:103930000700189A926F1043086004E09DF8570042
:103940008DF85600FFE7FFE7189800784007002839
:103950003BD5FFE71898D0F894000790052819D8B0
:103960000799DFE801F003040C14151616E0189807
:103970000830012103F098FB8DF857000EE01898ED
:103980002830012103F078FC8DF8570006E005E0AF
:1039900004E003E001208DF85700FFE79DF8570091
:1039A00068B9FFE744F25841C5F60201086820F003
:1039B0000700189AD2F894201043086004E09DF89C
:1039C00057008DF85600FFE7FFE71898007880064B
:1039D00000284ED5FFE71898D0F890000690C8B19F
:1039E000FFE70698B0F1805F15D0FFE70698B0F1C9
:1039F000005F18D0FFE70698B0F1405F1BD0FFE7EB
:103A00000698B0F1804F17D0FFE70698B0F1A04FAD
:103A100013D013E016E018980830002103F044FB9F
:103A20008DF857000EE018982830022103F024FC8E
:103A30008DF8570006E005E004E003E001208DF872
:103A40005700FFE79DF8570068B9FFE744F254417B
:103A5000C5F60201086820F0E040189AD2F89020DC
:103A60001043086004E09DF857008DF85600FFE70A
:103A7000FFE718980078400600284ED5FFE7189811
:103A8000D0F89C000590C8B1FFE70598B0F5806FAD
:103A900015D0FFE70598B0F5006F18D0FFE705983F
:103AA000B0F5406F1BD0FFE70598B0F5805F17D0E9
:103AB000FFE70598B0F5A05F13D013E016E0189863
:103AC0000830002103F0F0FA8DF857000EE0189846
:103AD0002830022103F0D0FB8DF8570006E005E006
:103AE00004E003E001208DF85700FFE79DF8570040
:103AF00068B9FFE744F25841C5F60201086820F4AE
:103B0000E050189AD2F89C201043086004E09DF819
:103B100057008DF85600FFE7FFE718980078000679
:103B200000284ED5FFE71898D0F8A0000490C8B13F
:103B3000FFE70498B0F5005F15D0FFE70498B0F5F3
:103B4000804F18D0FFE70498B0F5C04F1BD0FFE7B7
:103B50000498B0F5004F17D0FFE70498B0F5204F58
:103B600013D013E016E018980830002103F09CFAF7
:103B70008DF857000EE018982830022103F07CFBE6
:103B80008DF8570006E005E004E003E001208DF821
:103B90005700FFE79DF8570068B9FFE744F2584126
:103BA000C5F60201086820F46040189AD2F8A020F7
:103BB0001043086004E09DF857008DF85600FFE7B9
:103BC000FFE7189800780007002820D5FFE718982D
:103BD000D0F88400B0F5805F0CD1FFE7189828304A
:103BE000022103F049FB20B1FFE701208DF85600C8
:103BF000FFE7FFE744F25441C5F60201086820F4EC
:103C00004050189AD2F8842010430860FFE71898B3
:103C10000078C006002820D5FFE71898D0F8980053
:103C2000B0F5807F0CD1FFE718982830022103F00F
:103C300023FB20B1FFE701208DF85600FFE7FFE7E7
:103C400044F25841C5F60201086820F44070189A01
:103C5000D2F8982010430860FFE718988078000792
:103C600000283CD5FFE71898D0F8A400039050B185
:103C7000FFE70398B0F5803F0DD0FFE70398B0F55C
:103C8000003F10D010E018980830002103F00CFA23
:103C90008DF857000CE018982830022103F0ECFA58
:103CA0008DF8570004E003E001208DF85700FFE78E
:103CB0009DF8570068B9FFE744F25841C5F6020184
:103CC000086820F44030189AD2F8A4201043086005
:103CD00004E09DF857008DF85600FFE7FFE71898BD
:103CE0008078400700283FD5FFE71898D0F8880073
:103CF0000290B0F5801F0AD0FFE70298B0F5001FD0
:103D00000ED0FFE70298B0F5401F11D011E044F249
:103D10002C41C5F60201086840F4003008600CE050
:103D200018982830012103F0A7FA8DF8570004E015
:103D300003E001208DF85700FFE79DF8570068B9B0
:103D4000FFE744F25441C5F60201086820F4401030
:103D5000189AD2F888201043086004E09DF85700B4
:103D60008DF85600FFE7FFE718988078C007A8B3E2
:103D7000FFE71898006D019028B1FFE70198B0F5B2
:103D8000803F09D010E044F22C41C5F602010868DA
:103D900040F4003008600BE018980830022103F06E
:103DA00083F98DF8570003E001208DF85700FFE7F5
:103DB0009DF8570060B9FFE744F24C41C5F6020197
:103DC000086820F48030189A126D1043086004E0EF
:103DD0009DF857008DF85600FFE7FFE71898C07868
:103DE000800600280CD5FFE718982830022103F040
:103DF00043FA20B1FFE701208DF85600FFE7FFE707
:103E000018988078800700283CD5FFE71898D0F8EC
:103E100080000090D0B1FFE70098B0F5807F0AD015
:103E2000FFE70098B0F5007F0ED0FFE70098B0F5EF
:103E3000407F0AD00BE044F22C41C5F6020108682D
:103E400040F40030086006E005E004E003E00120F3
:103E50008DF85700FFE79DF8570068B9FFE744F277
:103E60005441C5F60201086820F44070189AD2F84F
:103E700080201043086004E09DF857008DF856003C
:103E8000FFE7FFE718988078C00600280CD5FFE709
:103E900044F25041C5F60201086820F00040189A2B
:103EA000526F10430860FFE71898C078C0060028DA
:103EB0000DD5FFE744F21041C5F60201086820F471
:103EC0008040189AD2F8B82010430860FFE718988D
:103ED0008078800600280CD5FFE744F25041C5F6F3
:103EE0000201086820F08070189AD26E10430860B2
:103EF000FFE71898C0784006002811D5FFE7FFE7D4
:103F000044F21041C5F60201086820F40040086040
:103F10001898D0F8BC20086810430860FFE7FFE756
:103F20001898C078000600280CD5FFE744F24C41F1
:103F3000C5F60201086820F04050189A526D1043EF
:103F40000860FFE718988078000600280DD5FFE785
:103F500044F25441C5F60201086820F44000189A62
:103F6000D2F88C2010430860FFE718980079C0074A
:103F700090B1FFE718980830002103F095F88DF80C
:103F800057009DF8570008B9FFE704E09DF8570077
:103F90008DF85600FFE7FFE71898007980070028A2
:103FA00012D5FFE718980830012103F07DF88DF84D
:103FB00057009DF8570008B9FFE704E09DF8570047
:103FC0008DF85600FFE7FFE71898007940070028B2
:103FD00012D5FFE718980830022103F065F88DF834
:103FE00057009DF8570008B9FFE704E09DF8570017
:103FF0008DF85600FFE7FFE71898007900070028C2
:1040000012D5FFE718982830002103F035F98DF814
:1040100057009DF8570008B9FFE704E09DF85700E6
:104020008DF85600FFE7FFE718980079C0060028D2
:1040300012D5FFE718982830012103F01DF98DF8FB
:1040400057009DF8570008B9FFE704E09DF85700B6
:104050008DF85600FFE7FFE71898007980060028E2
:1040600012D5FFE718982830022103F005F98DF8E2
:1040700057009DF8570008B9FFE704E09DF8570086
:104080008DF85600FFE7FFE79DF8560020B9FFE7DF
:1040900000208DF8670003E001208DF86700FFE73E
:1040A0009DF867001AB080BD80B586B0049003917A
:1040B000049820B9FFE701208DF817003CE203982F
:1040C00042F20001C5F20021096801F00F018842A7
:1040D00016D9FFE742F20000C5F20020016821F086
:1040E0000F01039A11430160006800F00F0003996B
:1040F000884204D0FFE701208DF817001CE2FFE79B
:10410000049800784007002819D5FFE70498006953
:1041100044F21841C5F60201096801F070018842B5
:104120000CD9FFE744F21841C5F60201086820F0F7
:104130007000049A126910430860FFE7FFE70498D3
:1041400000780007002819D5FFE70498406944F279
:104150001C41C5F60201096801F0700188420CD9C2
:10416000FFE744F21C41C5F60201086820F0700028
:10417000049A526910430860FFE7FFE7049800784B
:10418000C006002819D5FFE70498806944F21C4155
:10419000C5F60201096801F4E06188420CD9FFE725
:1041A00044F21C41C5F60201086820F4E060049A5C
:1041B000926910430860FFE7FFE7049800788006E3
:1041C000002819D5FFE70498C06944F22041C5F6DC
:1041D0000201096801F0700188420CD9FFE744F23E
:1041E0002041C5F60201086820F07000049AD269E7
:1041F00010430860FFE7FFE7049800788007002875
:1042000019D5FFE70498C06844F21841C5F60201C9
:10421000096801F00F0188420CD9FFE744F2184108
:10422000C5F60201086820F00F00049AD268104316
:104230000860FFE7FFE704980078C007002800F057
:104240008C80FFE744F21841C5F60201086820F4AB
:104250007060049A926810430860049840680228CD
:1042600011D1FFE744F20040C5F60200006800F4F7
:1042700000310020B0EB514F04D1FFE701208DF851
:10428000170059E13EE004984068032811D1FFE788
:1042900044F20040C5F60200006800F00071002002
:1042A000B0EB516F04D1FFE701208DF8170043E117
:1042B00027E004984068012811D1FFE744F200404C
:1042C000C5F60200006800F480710020B0EB112FE9
:1042D00004D1FFE701208DF817002DE110E044F232
:1042E0000040C5F60200006800F004010020B0EBB9
:1042F000910F04D1FFE701208DF817001CE1FFE7C3
:10430000FFE7FFE744F21041C5F60201086820F01C
:104310000700049A526810430860FEF799FA01906A
:10432000FFE744F21040C5F60200006800F03800D4
:1043300004994968B0EBC10F0ED0FFE7FEF788FA89
:104340000199401A41F28931884204D3FFE70320E2
:104350008DF81700F0E0E4E7FFE7049800788007A5
:10436000002819D5FFE70498C06844F21841C5F643
:104370000201096801F00F0188420CD2FFE744F204
:104380001841C5F60201086820F00F00049AD268AF
:1043900010430860FFE7FFE7039842F20001C5F20F
:1043A0000021096801F00F01884216D2FFE742F2AE
:1043B0000000C5F20020016821F00F01039A1143AB
:1043C0000160006800F00F000399884204D0FFE705
:1043D00001208DF81700AFE0FFE704980078400750
:1043E000002819D5FFE70498006944F21841C5F682
:1043F0000201096801F0700188420CD2FFE744F223
:104400001841C5F60201086820F07000049A12698C
:1044100010430860FFE7FFE70498007800070028D2
:1044200019D5FFE70498406944F21C41C5F6020122
:10443000096801F0700188420CD2FFE744F21C4188
:10444000C5F60201086820F07000049A5269104312
:104450000860FFE7FFE704980078C006002819D538
:10446000FFE70498806944F21C41C5F6020109681F
:1044700001F4E06188420CD2FFE744F21C41C5F62A
:104480000201086820F4E060049A92691043086011
:10449000FFE7FFE7049800788006002819D5FFE7BA
:1044A0000498C06944F22041C5F60201096801F090
:1044B000700188420CD2FFE744F22041C5F60201A8
:1044C000086820F07000049AD26910430860FFE782
:1044D000FFE700F089F844F21842C5F602021168BD
:1044E000C1F303234AF22851C0F60001CB5C03F06C
:1044F0001F03D84000900098126802F00F02895CF8
:1045000001F01F01C84040F20801C2F200410860FA
:10451000009840F20401C2F20041086040F2140029
:10452000C2F200400068FEF7EBF98DF80B009DF831
:104530000B008DF81700FFE79DF8170006B080BD4F
:1045400080B582B000F050F844F21842C5F602027D
:104550001168C1F303234AF22851C0F60001CB5C75
:1045600003F01F03D84001900198126802F00F0277
:10457000895C01F01F0120FA01F140F20800C2F24B
:1045800000400160019940F20402C2F20042116051
:10459000006802B080BD000080B5FFF7D1FF44F293
:1045A0001C41C5F602010968C1F302124AF2285102
:1045B000C0F60001895C01F01F01C84080BD000009
:1045C00080B5FFF7BDFF44F21C41C5F60201096842
:1045D000C1F302224AF22851C0F60001895C01F0C1
:1045E0001F01C84080BD00008AB044F21040C5F6EB
:1045F0000200006800F0380001460191182800F21E
:104600005F810199DFE811F019005C015C015C0138
:104610005C015C015C015C013A005C015C015C01D5
:104620005C015C015C015C0140005C015C015C01BF
:104630005C015C015C015C01460044F20040C5F68F
:104640000200006800F020010020B0EB511F0ED0E6
:10465000FFE744F20040C5F602000068C0F3C10164
:1046600049F20000C0F2D030C840029005E049F2A3
:104670000000C0F2D0300290FFE727E140F60010C2
:10468000C0F23D00029021E147F64000C0F27D10EB
:1046900002901BE144F22840C5F60200016801F0D7
:1046A000030108910068C0F30510079044F22C4004
:1046B000C5F60200006800F001000690069844F27A
:1046C0003441C5F60201096889B2C908484300EEC1
:1046D000100AB8EE400A8DED040A0798002800F091
:1046E000EB80FFE70898009048B1FFE700980128A9
:1046F00065D0FFE70098022800F08380A3E044F231
:104700000040C5F60200006800F020010020B0EB78
:10471000511F31D0FFE744F20040C5F602000068A7
:10472000C0F3C10149F20000C0F2D030C84005908A
:104730009DED050AB8EE400A9DED071AB8EE411A44
:1047400080EE010A44F23040C5F6020000686FF3C3
:104750005F2001EE100AB8EE411A9DED042A9FED8C
:104760005E3A02EE031AB7EE002A31EE021A20EE8C
:10477000010A8DED030A21E09DED070AB8EE401A0B
:104780009FED570A80EE010A44F23040C5F6020060
:1047900000686FF35F2001EE100AB8EE411A9DED3C
:1047A000042A9FED4D3A02EE031AB7EE002A31EECD
:1047B000021A20EE010A8DED030AFFE765E09DED88
:1047C000070AB8EE401A9FED450A80EE010A44F24E
:1047D0003040C5F6020000686FF35F2001EE100A5A
:1047E000B8EE411A9DED042A9FED3B3A02EE031A02
:1047F000B7EE002A31EE021A20EE010A8DED030A0F
:1048000043E09DED070AB8EE401A9FED320A80EEB4
:10481000010A44F23040C5F6020000686FF35F20E1
:1048200001EE100AB8EE411A9DED042A9FED2A3AD6
:1048300002EE031AB7EE002A31EE021A20EE010A48
:104840008DED030A21E09DED070AB8EE401A9FEDB9
:10485000230A80EE010A44F23040C5F602000068E7
:104860006FF35F2001EE100AB8EE411A9DED042AA5
:104870009FED193A02EE031AB7EE002A31EE021A42
:1048800020EE010A8DED030AFFE744F23040C5F641
:104890000200006881B2012000EB512009909DEDDB
:1048A000030A9DED091AB8EE411A80EE010ABCEE2A
:1048B000C00A8DED020A02E000200290FFE705E049
:1048C00040F60010C0F23D000290FFE702980AB0E7
:1048D000704700BF20BCBE4B000000390024744A62
:1048E0000024744C0000000080B58CB00A900A9837
:1048F00028B9FFE701208DF82F0000F09DBD0A9830
:104900000078C007002800F0B980FFE744F21040AB
:10491000C5F60200006800F03800069044F2284016
:10492000C5F6020000680590069810280AD0FFE737
:10493000069818281CD1FFE7059800F0030002280C
:1049400016D1FFE744F20040C5F60200006800F40B
:1049500000310020B0EB514F09D0FFE70A984068C2
:1049600028B9FFE701208DF82F0000F065BD84E035
:10497000FFE70A984068B0F5803F09D1FFE744F2AD
:104980000041C5F60201086840F48030086032E05A
:104990000A98406868B9FFE744F20041C5F6020191
:1049A000086820F480300860086820F480200860DF
:1049B00020E00A984068B0F5A02F0DD1FFE744F23F
:1049C0000041C5F60201086840F4802008600868CC
:1049D00040F4803008600CE044F20041C5F602016A
:1049E000086820F480300860086820F4802008609F
:1049F000FFE7FFE7FFE7FFE70A984068F0B1FFE74E
:104A0000FDF726FF0990FFE744F20040C5F60200DB
:104A1000006800F400310020B0EB514F0DD1FFE7EA
:104A2000FDF716FF0999401A652805D3FFE7032013
:104A30008DF82F0000F000BDE6E71DE0FDF708FF50
:104A40000990FFE744F20040C5F60200006800F458
:104A500000310020B0EB514F0DD0FFE7FDF7F8FE1D
:104A60000999401A652805D3FFE703208DF82F0028
:104A700000F0E2BCE6E7FFE7FFE7FFE70A9800780F
:104A80008007002840F11681FFE744F21040C5F688
:104A90000200006800F03800049044F22840C5F697
:104AA000020000680390049850B1FFE704981828AA
:104AB00078D1FFE79DF80C008007002872D1FFE74E
:104AC00044F20040C5F60200006800F00401002036
:104AD000B0EB910F09D0FFE70A98C06828B9FFE74B
:104AE00001208DF82F0000F0A7BC44F20041C5F66C
:104AF0000201086820F019000A9AD2681043086081
:104B0000FDF7A6FE0990FFE744F20040C5F602005B
:104B1000006800F004010020B0EB910F0DD1FFE719
:104B2000FDF796FE0999401A032805D3FFE70320F5
:104B30008DF82F0000F080BCE6E7FFE7FDF780FE70
:104B400041F2030188421DD8FFE70A980069402816
:104B50000AD1FFE744F20441C5F6020108682022A9
:104B600062F3113008600CE044F20441C5F6020122
:104B7000086820F47C300A9A126940EA0230086022
:104B8000FFE70CE044F20441C5F60201086820F09A
:104B9000FE400A9A126940EA02600860FFE7FFE7F8
:104BA000FFE786E00A98C06800285CD0FFE744F27F
:104BB0000041C5F60201086820F019000A9AD2687F
:104BC00010430860FDF744FE0990FFE744F20040FF
:104BD000C5F60200006800F004010020B0EB910F60
:104BE0000DD1FFE7FDF734FE0999401A032805D3DC
:104BF000FFE703208DF82F0000F01EBCE6E7FFE77B
:104C0000FDF71EFE41F2030188421DD8FFE70A9816
:104C1000006940280AD1FFE744F20441C5F60201C9
:104C20000868202262F3113008600CE044F204416D
:104C3000C5F60201086820F47C300A9A126940EA3D
:104C400002300860FFE70CE044F20441C5F60201BF
:104C5000086820F0FE400A9A126940EA0260086083
:104C6000FFE7FFE724E044F20041C5F602010868CF
:104C700020F001000860FDF7EBFD0990FFE744F22A
:104C80000040C5F60200006800F004010020B0EB0F
:104C9000910F0CD0FFE7FDF7DBFD0999401A0328BF
:104CA00004D3FFE703208DF82F00C5E3E7E7FFE714
:104CB000FFE7FFE70A980078C006002840F1EB8084
:104CC000FFE744F21040C5F60200006800F038002B
:104CD000029044F22840C5F6020000680190029854
:104CE00008280AD0FFE70298182850D1FFE701985A
:104CF00000F0030001284AD1FFE744F20040C5F666
:104D00000200006800F480710020B0EB112F09D080
:104D1000FFE70A98C069802804D0FFE701208DF8DA
:104D20002F0089E3FFE7FDF78BFD41F20301884285
:104D30001DD8FFE70A98006A20280AD1FFE744F24D
:104D40000441C5F602010868102262F39E60086003
:104D50000CE044F20441C5F60201086820F0F84076
:104D60000A9A126A40EA82600860FFE70CE044F2A7
:104D70000C41C5F60201086820F07C500A9A126ABC
:104D800040EA02600860FFE7FFE7FFE782E00A9879
:104D9000C069002858D0FFE744F20041C5F602017F
:104DA000086840F080000860FDF752FD0990FFE7B9
:104DB00044F20040C5F60200006800F48071002053
:104DC000B0EB112F0CD1FFE7FDF742FD0999401A16
:104DD000032804D3FFE703208DF82F002CE3E7E737
:104DE000FFE7FDF72DFD41F2030188421DD8FFE7E3
:104DF0000A98006A20280AD1FFE744F20441C5F668
:104E000002010868102262F39E6008600CE044F220
:104E10000441C5F60201086820F0F8400A9A126AB7
:104E200040EA82600860FFE70CE044F20C41C5F6FE
:104E30000201086820F07C500A9A126A40EA026077
:104E40000860FFE7FFE724E044F20041C5F60201F5
:104E5000086820F080000860FDF7FAFC0990FFE781
:104E600044F20040C5F60200006800F480710020A2
:104E7000B0EB112F0CD0FFE7FDF7EAFC0999401ABF
:104E8000032804D3FFE703208DF82F00D4E2E7E7DF
:104E9000FFE7FFE7FFE70A980078000700284FD5F3
:104EA000FFE70A98406928B3FFE744F27441C5F66A
:104EB0000201086840F001000860FDF7C9FC099094
:104EC000FFE744F27440C5F60200006800F00201FA
:104ED0000020B0EB510F0CD1FFE7FDF7B9FC0999A9
:104EE000401A032804D3FFE703208DF82F00A3E224
:104EF000E7E724E044F27441C5F60201086820F0B7
:104F000001000860FDF7A4FC0990FFE744F274403B
:104F1000C5F60200006800F002010020B0EB510F5E
:104F20000CD0FFE7FDF794FC0999401A032804D33D
:104F3000FFE703208DF82F007EE2E7E7FFE7FFE7BA
:104F40000A980078800600284FD5FFE70A98806904
:104F500028B3FFE744F20041C5F60201086840F4B7
:104F600080500860FDF774FC0990FFE744F20040B0
:104F7000C5F60200006800F400510020B0EB513F7C
:104F80000CD1FFE7FDF764FC0999401A032804D30C
:104F9000FFE703208DF82F004EE2E7E724E044F21C
:104FA0000041C5F60201086820F480500860FDF752
:104FB0004FFC0990FFE744F20040C5F6020000688C
:104FC00000F400510020B0EB513F0CD0FFE7FDF79B
:104FD0003FFC0999401A032804D3FFE703208DF80A
:104FE0002F0029E2E7E7FFE7FFE70A98007840078C
:104FF000002840F1A780FFE744F60001C5F6020152
:10500000086840F480700860FDF722FC0990FFE713
:1050100044F60000C5F602000068C00500280CD464
:10502000FFE7FDF715FC0999401A652804D3FFE74F
:1050300003208DF82F00FFE1EAE7FFE70A98806878
:10504000012809D1FFE744F27041C5F60201086862
:1050500040F00100086031E00A98806868B9FFE715
:1050600044F27041C5F60201086820F001000860B2
:10507000086820F0040008601FE00A98806805288E
:105080000DD1FFE744F27041C5F60201086840F017
:1050900004000860086840F0010008600CE044F279
:1050A0007041C5F60201086820F001000860086838
:1050B00020F004000860FFE7FFE7FFE7FFE70A983A
:1050C0008068F8B1FFE7FDF7C3FB0990FFE744F202
:1050D0007040C5F60200006800F002010020B0EB4D
:1050E000510F0ED1FFE7FDF7B3FB0999401A41F2CA
:1050F0008931884204D3FFE703208DF82F009BE11C
:10510000E5E71EE0FDF7A4FB0990FFE744F27040DD
:10511000C5F60200006800F002010020B0EB510F5C
:105120000ED0FFE7FDF794FB0999401A41F289314F
:10513000884204D3FFE703208DF82F007CE1E5E7E8
:10514000FFE7FFE70A98406A002800F07181FFE757
:1051500044F21040C5F60200006800F0380018283C
:1051600000F0E080FFE70A98406A022840F0B4802F
:10517000FFE744F20041C5F60201086820F08070A4
:105180000860FDF765FB0990FFE744F20040C5F6B3
:105190000200006800F000710020B0EB516F0CD0ED
:1051A000FFE7FDF755FB0999401A032804D3FFE7F1
:1051B00003208DF82F003FE1E7E7FFE744F22841A5
:1051C000C5F60201086840F2F33290430A9B9A6ADE
:1051D000DB6A42EA0312104308600A99086BD1F8AF
:1051E00034C08B6BCA6B01386FF35F204FF60061E0
:1051F000CFF6FF7101EB4C2189B208440021CFF6B4
:10520000FF7101EB034101F4FE0108444FF07F41BF
:1052100001EB026101F0FE41084444F23041C5F661
:1052200002010860FFE744F22C41C5F6020100913B
:10523000086820F00100086044F23442C5F602021A
:1052400010684FF6F87398430A9B9B6C40EAC300C2
:105250001060086820F00C000A9A126C1043086075
:10526000086820F002000A9A526C1043086008682F
:1052700040F480300860086840F400300860086836
:1052800040F480200860086840F00100086044F2A3
:105290000041C5F60201086840F080700860FDF723
:1052A000D7FA0990FFE744F20040C5F60200006813
:1052B00000F000710020B0EB516F0CD1FFE7FDF75B
:1052C000C7FA0999401A032804D3FFE703208DF891
:1052D0002F00B1E0E7E724E044F20041C5F6020107
:1052E000086820F080700860FDF7B2FA0990FFE7C7
:1052F00044F20040C5F60200006800F00071002092
:10530000B0EB516F0CD0FFE7FDF7A2FA0999401AF4
:10531000032804D3FFE703208DF82F008CE0E7E794
:10532000FFE784E044F22840C5F6020000680890D8
:1053300044F23040C5F60200006807900A98406ABF
:10534000012837D0FFE7089800F003000A99896A1E
:1053500088422FD1FFE7089800F47C710A98C06A50
:10536000B0EB111F26D1FFE707986FF35F200A9972
:10537000096B013988421DD1FFE7BDF81C100A985E
:10538000406B0138B0EB512F14D1FFE7079800F4C0
:10539000FE010A98806B0138B0EB114F0AD1FFE78C
:1053A000079800F0FE410A98C06B0138B0EB116F0E
:1053B00004D0FFE701208DF82F003DE044F2344097
:1053C000C5F60200006880B2C00808900A98806C98
:1053D0000899884229D0FFE744F22C41C5F6020122
:1053E000086820F001000860FDF732FA0990FFE735
:1053F000FDF72EFA0999401A08B9FFE7F8E744F2D9
:105400003441C5F6020108684FF6F87290430A9AD3
:10541000926C40EAC200086044F22C41C5F60201D9
:10542000086840F001000860FFE7FFE7FFE7FFE7DB
:1054300000208DF82F00FFE79DF82F000CB080BDF5
:1054400080B582B00190019802F002F802B080BDF0
:1054500081B0009001B0704781B0009001B07047FA
:1054600081B0009001B0704785B003900291FFE7D2
:10547000039890F83C00012804D1FFE702208DF842
:10548000130099E00399012081F83C00FFE7FFE752
:105490000399022081F83D0003980068406801905C
:1054A0000398006880680090039800680021C4F2A7
:1054B0000101884209D0FFE70398006840F20041EB
:1054C000C4F2010188420AD1FFE7019820F470007C
:1054D000019002984168019808430190FFE7019804
:1054E00020F0700001900298016801980843019033
:1054F0000198039909684860039800680021C4F284
:10550000010188423CD0FFE703980068B0F1804F6A
:1055100036D0FFE70398006840F20041C4F2000172
:1055200088422DD0FFE70398006840F60001C4F2DE
:105530000001884224D0FFE70398006840F600414C
:10554000C4F2000188421BD0FFE70398006840F2D4
:105550000041C4F20101884212D0FFE703980068BD
:1055600041F60001C4F20001884209D0FFE7039828
:10557000006844F20001C4F2010188420ED1FFE745
:10558000009820F0800000900298816800980843FD
:1055900000900098039909688860FFE7039901204B
:1055A00081F83D00FFE70399002081F83C00FFE708
:1055B00000208DF81300FFE79DF8130005B0704739
:1055C00080B582B00090009820B9FFE701208DF8E7
:1055D000070045E0009890F83D0040B9FFE70099CA
:1055E000002081F83C00009800F03EF8FFE70099A9
:1055F000022081F83D00009951F8040B02F0ACF84C
:105600000099012081F84800FFE70099012081F806
:105610003E00009981F83F00009981F84000009910
:1056200081F84100009981F84200009981F8430017
:10563000FFE7FFE70099012081F84400009981F815
:105640004500009981F84600009981F84700FFE77E
:105650000099012081F83D0000208DF80700FFE748
:105660009DF8070002B080BD80B588B0079007980C
:1056700000680021C4F2010188422DD1FFE7FFE755
:1056800044F2F040C5F60200016841F001010160FA
:10569000006800F0010006900698FFE718200190CE
:1056A0000121039100220492FDF78EF90198FDF784
:1056B0007FF90399049A19200290FDF785F9029861
:1056C000FDF776F90399049A1A200590FDF77CF905
:1056D0000598FDF76DF9FFE708B080BD00000000F8
:1056E00083B00190019890F83D00012804D0FFE7B5
:1056F00001208DF80B0071E00199022081F83D0036
:1057000001980168C86840F00100C860019800680D
:105710000021C4F2010188423CD0FFE701980068F3
:10572000B0F1804F36D0FFE70198006840F20041A9
:10573000C4F2000188422DD0FFE70198006840F6CE
:105740000001C4F20001884224D0FFE701980068FC
:1057500040F60041C4F2000188421BD0FFE70198E7
:10576000006840F20041C4F20101884212D0FFE714
:105770000198006841F60001C4F20001884209D096
:10578000FFE70198006844F20001C4F20101884279
:1057900019D1FFE70198006880680721C0F2010174
:1057A00008400090009806280CD0FFE70098B0F55C
:1057B000803F07D0FFE701980168086840F00100CA
:1057C0000860FFE706E001980168086840F0010002
:1057D0000860FFE700208DF80B00FFE79DF80B0045
:1057E00003B070470000000080B586B004900391BC
:1057F00000208DF80B00FFE7049890F83C0001288A
:1058000004D1FFE702208DF81700D1E004990120B0
:1058100081F83C00FFE7FFE70499022081F83D0092
:10582000049800688068019001984FF68871CFF65F
:10583000CE7108400190019820F47F4001900198BA
:10584000049909688860039800680090002800F0B7
:105850009580FFE70098102800F09080FFE70098FF
:10586000202800F08B80FFE70098302800F0868029
:10587000FFE70098402874D0FFE70098502856D0E2
:10588000FFE7009860285FD0FFE7009870282AD0D3
:10589000FFE70098B0F5805F24D0FFE70098B0F5EF
:1058A000005F35D0FFE70098B0F5801F66D0FFE7B6
:1058B0000098B0F1101F61D0FFE700982021C0F2DE
:1058C000100188425AD0FFE700983021C0F2100141
:1058D000884253D0FFE700984021C0F2100188426F
:1058E0004CD052E055E004980068039B5A689968D0
:1058F000DB6802F005F80498006880680190019860
:1059000040F077000190019804990968886040E0B0
:1059100004980068039B5A689968DB6801F0F0FFFF
:1059200004980168886840F48040886031E00498F9
:105930000068039A5168D26802F016F8049800686B
:10594000502101F0F9FF24E004980068039A51689F
:10595000D26802F031F804980068602101F0ECFF91
:1059600017E004980068039A5168D26801F0FCFFC0
:1059700004980068402101F0DFFF0AE00498006805
:105980000399096801F0D8FF03E001208DF80B00AE
:10599000FFE70499012081F83D00FFE7049900200A
:1059A00081F83C00FFE79DF80B008DF81700FFE73A
:1059B0009DF8170006B080BD81B0009001B070471F
:1059C00080B584B0039003980068C0680290039883
:1059D0000068006901909DF804008007002824D524
:1059E000FFE79DF80800800700281DD5FFE7039812
:1059F00001686FF00200086103990120087703989D
:105A000000688069800720B1FFE70398FFF7D4FFA3
:105A100006E0039800F0FCF8039800F0FDF8FFE7BB
:105A2000039900200877FFE7FFE79DF8040040078F
:105A3000002825D5FFE79DF80800400700281ED55F
:105A4000FFE7039801686FF00400086103990220E2
:105A5000087703980068806910F4407F04D0FFE75E
:105A60000398FFF7A9FF06E0039800F0D1F8039828
:105A700000F0D2F8FFE7039900200877FFE7FFE77F
:105A80009DF804000007002824D5FFE79DF80800D2
:105A9000000700281DD5FFE7039801686FF0080094
:105AA000086103990420087703980068C06980079B
:105AB00020B1FFE70398FFF77FFF06E0039800F0AF
:105AC000A7F8039800F0A8F8FFE7039900200877EB
:105AD000FFE7FFE79DF80400C006002825D5FFE793
